:020000040800F2
:10000000381F002001010008F11A0008D30D000874
:10001000591400088D0900086B3400080000000026
:100020000000000000000000000000004520000863
:10003000B309000800000000851B0008812A0008A1
:100040001B0100081B0100081B0100081B01000820
:100050001B0100081B0100081B0100081B01000810
:100060001B0100081B0100081B0100081B01000800
:100070001B0100081B0100081B0100081B010008F0
:100080001B0100081B0100081B0100081B010008E0
:100090001B0100081B0100081B0100081B010008D0
:1000A0001B0100081B0100081B0100081B010008C0
:1000B000392C00085D2C00086D2C00081B0100087D
:1000C0001B0100081B0100081B0100081B010008A0
:1000D0001B010008D130000835310008A5310008A7
:1000E000E10900081B0100081B010008DFF80CD023
:1000F00000F0ACFB004800475D440008381F0020BA
:100100000648804706480047FEE7FEE7FEE7FEE7B1
:10011000FEE7FEE7FEE7FEE7FEE7FEE7D92B000875
:10012000ED000008D2B201E000F8012B491EFBD21D
:1001300070470022F6E710B513460A4604461946F2
:10014000FFF7F0FF204610BD30B505462A460B46A6
:1001500012F8010B13F8014B08B1A042F8D01CB102
:10016000002802D06D1CF1E7284630BD421C10F873
:10017000011B0029FBD1801A7047F0B480EA01020C
:10018000D40F4200B2EB410F02D20246084611469C
:100190004A0042D0C30DDDB2C1F3C752AD1A202DC3
:1001A00035DAC1F3160141F4000204B15242C5F13F
:1001B000200602FA06F12A411044B3EBD05F23D0A7
:1001C000C4B1012DA0EBC35009DCF0BC4FF00042DC
:1001D00002EAC352DBB200F5000000F00DB94000A6
:1001E00000F1807000EBC350A0F1807040EAD17044
:1001F000490009E0490841EAC071A0EBC35000F58D
:100200000000400800EBC350F0BC00F0ECB86142C5
:10021000012202EB4101001BF6E7F0BC704781F0C0
:100220000041AAE780F00040A7E780EA010210B58C
:1002300002F00043400022D04A001FD0010E01EB23
:100240001261C0F35600C2F3560240F4000042F4BB
:100250000002A0FB022000047F39140400D0401CDF
:1002600050EA124001D44000491EC2B20C0604EB11
:10027000D010401C4008802A02D003E0002010BDAE
:1002800020F00100002900DA0020184310BD30B42E
:1002900080EA010202F0004530F0004221F0004007
:1002A00013D090B1C30DD40DC2F31601C0F31600E4
:1002B000E41A41F4000140F400027D34914201D37C
:1002C000641C00E04900002C02DA30BC00207047BA
:1002D0004FF400000023914201D3891A03434008E0
:1002E0004FEA4101F7D151B1914202D14FF00041A3
:1002F00005E002D24FF0010101E06FF0010103EBD4
:10030000C450284430BC00F06EB8C10F80EAE070E1
:100310000844CA079623002100F06EB820F0004080
:10032000C10DC0F3160040F400007F2901DA00205F
:100330007047962903DCC1F19601C8407047963991
:1003400088407047002801DBC0F10040002901DB34
:10035000C1F100418142704730B50B460146002093
:100360002022012409E021FA02F59D4205D303FA77
:1003700002F5491B04FA02F52844151EA2F10102F8
:10038000F1DC30BD2DE9F05F0546002092469B462A
:1003900088460646814640241BE02846414647469B
:1003A000224600F074FA53465A46C01A914110D3BF
:1003B00011461846224600F05BFA2D1A67EB010839
:1003C0004F4622460120002100F052FA17EB0009A7
:1003D0004E41201EA4F10104DFDC484631462A4686
:1003E0004346BDE8F09F0029A8BF7047401C490064
:1003F00008BF20F00100704710B4B0FA80FC00FA8A
:100400000CF050EA010404BF10BC704749B1CCF1B4
:10041000200421FA04F411FA0CF118BF0121214340
:100420000843A3EB0C01CB1D4FEA00614FEA1020FB
:1004300042BF002010BC704700EBC350104400299D
:10044000A4BF10BC7047401C490008BF20F0010049
:1004500010BC7047420005D0C0F3C75252429142CF
:1004600001DC0020704700EBC150704710B541001F
:100470000CD0C0F3C751962908DC7E2909DC06DBC5
:10048000410204D000F0004040F07E5010BD00203A
:1004900010BDC1F19604C4F1200100FA01F1E04061
:1004A000FFF7A1FFA04010BD2DE9FE4F804681EA75
:1004B0000300C00F0C46009021F0004123F00045DE
:1004C000B8EB0200A94105D24046214690461C46A1
:1004D0000B46024623F00040104347D0270DC7F3D8
:1004E0000A00C3F30A510290401A019040286BDAC7
:1004F000C3F3130040F4801B0098924620B1002300
:10050000D2EB030A63EB0B0B01985946C0F1400292
:10051000504600F0ADF906460D4650465946019A40
:1005200000F0C5F910EB08006141002487EA115280
:1005300084EAE7731A4340D0009A62B3019A012A11
:100540004FEA075215DC001B61EB02014FF000423D
:1005500002EA0752CDE90042001C41F58011324603
:100560002B4600F0C5F903B0BDE8F08F40462146A8
:10057000F9E7001B61EB0201001C41F58013001834
:100580005B412018A2F5001747EB030140EAD57044
:10059000B6196D4111E06D084FEA360645EAC0759F
:1005A0004FEA0752001B61EB0201001C41F580116C
:1005B00049084FEA30000019514132462B4603B03A
:1005C000BDE8F04F00F085B90098012240000023FB
:1005D000D0EB020263EBE073009821464FEAE0742F
:1005E000B8EB000061EB0401E9E783F000435BE74F
:1005F00081F0004158E72DE9FE4F81EA030404F041
:10060000004421F0004100944FF0000B23F0004320
:1006100050EA01045ED052EA03045BD0C3F30A54EB
:10062000C1F30A552C44A4F2F3340194A0FB025404
:10063000C1F3130141F48011C3F3130343F4801396
:1006400001FB024400FB034E840A970A44EA8154EA
:1006500047EA8357A4FB076802958D0A05FB0785C7
:100660004FEA932C04FB0C542705029D4FEA0658D1
:1006700047EA1637B5EB08056EEB070C870E920EAE
:1006800047EA811742EA8312A7FB0201B6EB0B018E
:1006900064EB00042B0D43EA0C335E1844EB1C5052
:1006A000DA465146E7FB0201C5F313044FEA0B3368
:1006B00043EA14534FEA0432019C43EA0603A4F1CF
:1006C0000C040294009CCDE900B400F011F903B0D1
:1006D000BDE8F08F00200146F9E72DE9F04D81EAF1
:1006E000030404F0004B21F0004514464FF0000ACB
:1006F00023F0004150EA050220D054EA01021DD047
:10070000C5F30A570246C5F31303C1F31300C1F33F
:100710000A5640F4801543F48013A7EB0608101B1B
:10072000D64608F2FD3873EB050002D308F1010844
:1007300001E092185B41B8F1000F03DA0020014696
:10074000BDE8F08D00204FF48011064684460EE08F
:10075000171B73EB050705D3121B63EB0503064359
:100760004CEA010C49084FEA300092185B4150EA0C
:100770000107EDD152EA030012D082EA040083EAB5
:100780000501084305D0101BAB4106D2012200230E
:1007900006E000224FF0004302E06FF00102531028
:1007A0001AEB06004CEB085110EB0A0041EB0B0171
:1007B000BDE8F04D00F08DB800F0004220F00040A0
:1007C000C10DC0F3160040F400007F2901DA0020BB
:1007D0007047962903DCC1F19601C84001E09639C3
:1007E0008840002AF4D040427047C1F30A52C1F356
:1007F000130140F2FF3341F480119A4202DA0020E3
:100800000146704740F233439A42A2F2334202DC7F
:10081000524200F03CB800F02BB8000030B5041E86
:1008200071F1000404DB4FF00044404264EB01012D
:10083000141E73F1000405DB1C464FF000435242C6
:1008400063EB0403994208BF904230BD064C074D4C
:1008500006E0E06840F0010394E807009847103490
:10086000AC42F6D3FFF746FCC8460008E84600084D
:10087000202A04DB203A00FA02F100207047914060
:10088000C2F1200320FA03F3194390407047202A55
:1008900004DB203A21FA02F00021704721FA02F32A
:1008A000D040C2F120029140084319467047202AE7
:1008B00006DBCB17203A41FA02F043EAE07306E088
:1008C00041FA02F3D040C2F1200291400843194698
:1008D000704710B5141E73F1000408DA401C41F192
:1008E000000192185B411A4301D120F0010010BDB4
:1008F0002DE9F04D92469B4611B1B1FA81F202E02A
:10090000B0FA80F220329046FFF7B2FF04460F465D
:1009100040EA0A0041EA0B0153465A46084313D005
:10092000114653EA010019D0C8F140025046FFF7C2
:10093000AEFF05460E46504659464246FFF798FF21
:10094000084305D0012004E020463946BDE8F08D7B
:100950000020054346EAE0762C4337430A986305B6
:10096000E40AA0EB08000022FD0A44EA47540A30DA
:1009700002D500200146E9E7010510196941DDE9CA
:10098000084500196941BDE8F04DA2E700BFFEE748
:1009900010B502460B460021002400BF04E0505C65
:1009A0002044C4B2481CC1B29942F8DBE043C0B253
:1009B00010BD704708B50121102001F01BF94FF45C
:1009C0000050ADF8000003208DF8020048208DF89B
:1009D00003006946014800F064F908BD00100140B9
:1009E00070B500240025002634E01E480068002869
:1009F00030D001F0C9F80446FA2C00D12BE0C82C05
:100A000003DBFA2C01DA012517E0552C0ADBC82C90
:100A100008DA01201449087014480078401C134972
:100A2000087018E0322C03DB552C01DA012604E0B3
:100A30000A2C02DB322C00DA00265DB10C4800687B
:100A400040000B49086008460068304408600020F8
:100A500006490870C9E700BF4FF4805000F00AF85B
:100A600070BD000030012142C1000020C000002004
:100A7000BC000020014908607047000014040140D8
:100A800030B5044604254FF4302000F083F80546C5
:100A9000042D17D10C48006940F002000A49086192
:100AA00008464461006940F0400008614FF430207E
:100AB00000F070F805460448006941F6FD710840F1
:100AC00001490861284630BD0020024004200B493E
:100AD000C96801F0010109B101200EE00749C968A8
:100AE00001F0040109B1022007E00449C96801F0DE
:100AF000100109B1032000E00420704700200240EB
:100B00000348006940F08000014908617047000017
:100B10000020024070B504460D460426F00200F0A5
:100B200039F80646042E11D10948006940F0010049
:100B3000074908612580F00200F02CF806460448B9
:100B4000006941F6FE71084001490861304670BDF8
:100B50000020024001460888704730B503460C4625
:100B60001546002207E003EB4200FFF7F3FF24F8ED
:100B70001200501C82B2AA42F5DB30BD0248034984
:100B800048600348486070472301674500200240E1
:100B9000AB89EFCD00B502460423FFF797FF03466C
:100BA00003E0FFF793FF0346521E012B01D1002AF9
:100BB000F7D102B90523184600BD00002DE9F05F0A
:100BC000054689461746B5F1006F04D305EB47008B
:100BD0001849884203D34FF0FF30BDE8F09FFFF77C
:100BE000CDFFA5F1006A4FEA9A284FF0006000EBB4
:100BF000882B5846FFF744FF0646042E00D010E02D
:100C000000240BE039F8141005EB4400FFF782FFD5
:100C10000646042E00D004E0601C84B2BC42F1DB26
:100C200000BFFFF76DFF042E02D04FF0FF30D4E776
:100C30000020D2E7000001080EB50121084600F0AF
:100C4000B9FF00F01DF84FF47A70ADF804004720AA
:100C5000ADF800000020ADF8020069464FF080407A
:100C600002F0D6F90121880702F032F8012211467C
:100C7000900702F05CF80121880702F02CF80EBD05
:100C800008B51C208DF8000000208DF8010002201E
:100C90008DF8020001208DF80300684600F030FF57
:100CA00008BD2DE9F0410246002500260020002362
:100CB0000024002791F803C00CF00F0591F803C041
:100CC0000CF0100CBCF1000F03D091F802C04CEAFC
:100CD000050591F800C0BCF1000F31D01468002068
:100CE0002BE04FF0010C0CFA00F3B1F800C00CEA55
:100CF00003069E4220D183004FF00F0C0CFA03F73D
:100D0000BC4305FA03FC4CEA040491F803C0BCF1AF
:100D1000280F06D14FF0010C0CFA00FCC2F814C0E9
:100D20000AE091F803C0BCF1480F05D14FF0010C67
:100D30000CFA00FCC2F810C0401C0828D1D3146083
:100D4000B1F800C0BCF1FF0F34DD546800202EE084
:100D500000F1080C4FF0010808FA0CF3B1F800C0DC
:100D60000CEA03069E4221D183004FF00F0C0CFACF
:100D700003F7BC4305FA03FC4CEA040491F803C0F2
:100D8000BCF1280F05D100F1080C08FA0CF8C2F8E4
:100D9000148091F803C0BCF1480F07D100F1080C92
:100DA0004FF0010808FA0CF8C2F81080401C08281F
:100DB000CED35460BDE8F0810246002093680B401A
:100DC0000BB1012000E000207047416170470161D4
:100DD000704700BFFEE700004AF6AA2001490860FC
:100DE000704700000030004010B54F4890F8A40054
:100DF00020B1012825D002287ED152E04A4890F83F
:100E0000A500494991F8A610884219D0464890F8A3
:100E1000A50038B90120444981F8A40000204349C5
:100E2000088007E040F2E7304049088002203E4950
:100E300081F8A4003C4890F8A5003B4981F8A60041
:100E400070E03948D0F8A80000B16BE005203649C1
:100E5000C1F8A8003548008840F2E73188421BDA23
:100E600032480088401C3149088031492F4A128895
:100E700051F82200FFF752FA84B2204600F05AF8E7
:100E80002B492A4A128851F82200FFF747FA84B208
:100E9000204600F05BF803E00020234981F8A4001D
:100EA00040E02148D0F8A80000B13BE002201E49F4
:100EB000C1F8A8001D480088002825DD1B480088CF
:100EC000401E1A490880084600881E2803DA0620BA
:100ED0001549C1F8A8001649144A128851F8220091
:100EE000FFF71CFA84B2204600F024F810490F4A9C
:100EF000128851F8220000E00FE0FFF70FFA84B2E9
:100F0000204600F023F807E000F01CF800F026F877
:100F10000020054981F8A40004E00020024981F87E
:100F2000A40000BF00BF10BDE4000020B6000020F8
:100F3000C001002010B50446214640F2E73001F020
:100F4000AFF910BD10B501F0A3F910BD10B50446FE
:100F5000214640F2E73001F0B9F910BD10B501F0BB
:100F6000ADF910BD00B589B00121022000F022FECC
:100F70000121082000F03EFE0320ADF820001820DB
:100F80008DF8230003208DF8220008A91D48FFF7E3
:100F900088FE40F2E730ADF818001720ADF81400D5
:100FA0000020ADF81A00ADF8160005A9164802F0A9
:100FB0002FF86020ADF804000120ADF806000020F5
:100FC000ADF80A00ADF80C0001A90F4801F06EFF62
:100FD00001A90D4801F0C4FF01210B4801F087FE73
:100FE0000121094801F065FE0821074801F0AEFF24
:100FF0000821054801F0F2FF0121034801F06BFED2
:1010000009B000BD000C01400004004008B50121FA
:10101000042000F0EFFDC020ADF8000003208DF8A3
:10102000020010208DF8030069460648FFF739FEDC
:1010300040210448FFF7C9FE80210248FFF7C5FEA2
:1010400008BD00000008014010B56E4890F880000F
:1010500030B1012851D003287FD004286FD1B9E0E6
:10106000684890F88200674991F88410884243D01C
:10107000644890F8820038BB0720624981F8640018
:101080000846806F08B10020886710215E48FFF78E
:1010900093FE88BB1B2000F0EEFC41F270705949B2
:1010A000C1F8880032208867012081F8800006207E
:1010B00081F86400084690F8820081F884004FF4BB
:1010C0007A60C1F8900017E04E4890F882004D49D0
:1010D00081F8840040214C48FFF777FE00204B49FF
:1010E00008704B4908704748C08832304549C1F8FC
:1010F0008800032081F8800082E04248D0F8880010
:10110000F0B110214048FFF757FE28BB40213E4870
:10111000FFF75DFE00203B4981F880000846807D96
:10112000062801D10420887500203A490870022061
:10113000394908700020394908700DE00DE05EE083
:1011400037A003F0BDF901202E4981F8840081F811
:101150008200002081F8800052E02A48D0F8880000
:1011600000B14DE029480078042823DA27480078A8
:10117000401C264908702648007868B90120244997
:10118000087040212048FFF722FE1E48C0883230F8
:101190001C49C1F888001CE000201D49087040214E
:1011A0001948FFF712FE1748C08832301549C1F8B8
:1011B00088000EE00420134981F880004021124885
:1011C000FFF705FE0F48C08800F596600D49C1F88D
:1011D000880015E00B48D0F8880000B110E04021ED
:1011E0000948FFF7F2FD0748C08832300549C1F8C9
:1011F0008800002081F8800081F8640000E000BFD2
:1012000000BF10BDE400002000080140B100002034
:10121000B20000203B0000203C0000203A000020EB
:1012200020B3ACCAB1C7BFD6C6CDCBB3F6A1A3A17C
:10123000A3A1A3A1A3A1A30A0000000010B56E48BA
:1012400090F8810030B101284FD003287DD00428C8
:101250007AD1B7E0684890F8831090F88500814211
:1012600042D0654890F8830030BB0721624880F87F
:101270006510C06F10B100215F48C16720215F4831
:10128000FFF79AFD80BB1B2000F00DFC41F270714E
:101290005948C0F88C103221C167012180F88110B3
:1012A000062180F8651090F8831080F885104FF4BF
:1012B0007A61C0F8941017E04F4890F8831080F8D6
:1012C000851080214D48FFF780FD00204C490870B3
:1012D0004C4908704848C08832304749C1F88C00F2
:1012E0000321454880F8811083E04348D0F88C0002
:1012F000E0B120214148FFF75FFD18BB80213F4846
:10130000FFF765FD00213C4880F88110807D0628AC
:1013100002D104203849887500203B49087002201A
:101320003A49087001203A4908700BE039A003F0EF
:10133000C7F80121304880F8851080F8831000211B
:1013400080F8811055E000E052E02B48D0F88C0086
:1013500000B14EE02A480078042823DA28480078B3
:10136000401C274908702748007868B901202549A2
:10137000087080212148FFF72AFD1F48C0883230BD
:101380001D49C1F88C001CE000201E490870802116
:101390001A48FFF71AFD1848C08832301649C1F8BC
:1013A0008C000EE00421144880F88110802113483D
:1013B000FFF70DFD1048C08800F596600E49C1F892
:1013C0008C0016E00C48D0F88C0000B111E08021B0
:1013D0000A48FFF7FAFC0848C08832300649C1F8CD
:1013E0008C000021044880F8811080F8651000E02E
:1013F00000BF00BF10BD0000E40000200008014055
:10140000B3000020B40000203B0000203C0000207E
:101410003A00002020B3ACCAB1C7BFD6C6CDCBB30B
:10142000F6A1A3A1A3A1A3A1A3A1A30A0000000068
:1014300010B501F09DF9FFF7D7FC00F005FE01F0B3
:1014400039FE00F07BF800F0C5F9FFF7FDFDFFF76E
:10145000F5FE00F059FC10BD00BFFEE730B589B0C5
:1014600005460C4601F010FC0121042000F0A2FB0F
:101470000121082000F0BEFB4FF47070ADF8200091
:1014800018208DF8230003208DF8220008A9294890
:10149000FFF707FC0A20ADF81800ADF81440002053
:1014A000ADF81A00ADF8160005A9234801F0B0FD0B
:1014B0006020ADF804000120ADF806000020ADF872
:1014C0000A00ADF80C0001A91B4801F039FC01A984
:1014D000194801F08BFC01A9174801F0E7FC01A9AC
:1014E000154801F03DFD0121134801F0EEFB0121FB
:1014F000114801F0FCFB01210F4801F0DAFB082143
:101500000D4801F069FC08210B4801F0C1FC0821DD
:10151000094801F01BFD0821074801F05FFD012289
:101520001146054801F003FC0121034801F0D3FBFB
:1015300009B030BD000C01400008004010B5A148C2
:1015400090F864000A287DD2DFE800F0057C7C1E5C
:101550004DADF81AF7F69B48C06D80B9994890F8E0
:101560006C0000EB4000984901EB80004068954911
:101570000867032081F86400002081F866001FE1FD
:10158000262000F06FFA1BE18E4890F8680038B909
:101590001B2000F067FA04208A4981F864001BE0F0
:1015A000884890F86800012807D11B2000F063FAF2
:1015B0000420844981F864000EE0824890F86800B5
:1015C000022809D10020814908701B2000F04AFA46
:1015D00005207C4981F864007A4890F868007949D0
:1015E00081F86A00ECE0774890F86800754991F856
:1015F0006A10884208D000F047FA0020714981F84B
:101600006400C820C865DBE06E4890F8660010B141
:10161000012845D11AE06B48006FB0B910216C4821
:10162000FFF7CAFB88B9674890F86C0000EB4000F0
:10163000654901EB8000806862498867012081F874
:10164000660000E0BBE000F01FFA2AE05D48806F12
:1016500028BB5C4890F86C0000EB40005A4901EB55
:101660008000406857490867002081F866000846F6
:1016700090F8680038B91B2000F0F4F904205149B3
:1016800081F864000BE04F4890F86800012806D10B
:101690001B2000F0F0F904204A4981F8640000E0C2
:1016A00000BF00BF8CE0474890F86800454991F8BA
:1016B0006A10884206D000F0E7F90020414981F81D
:1016C00064007DE03F4890F8660020B101284FD0CB
:1016D000022865D133E03B48006FA8B910213C488F
:1016E000FFF76AFB38BB374890F86C0000EB40000E
:1016F000354901EB8000806832498867012081F814
:10170000660000F0C1F916E02E48C06D98B91021AE
:101710002F48FFF751FB70B92A48C08800F57A704E
:101720002849C865022081F8660000F0ADF94FF441
:10173000FA702449886534E040E03EE033E0214817
:10174000806D00B12DE02148007830B901201F499B
:1017500008701B2000F08FF905E000201B4908707D
:101760001B2000F07FF90020164981F8660018E080
:101770001448806F98B9002014490870114890F8F7
:101780006C0000EB4000104901EB800040680D49FF
:101790000867002081F866001B2000F063F900E074
:1017A00000BF00BF0CE00748806F28B900F06CF95B
:1017B0000920044981F8640002E001E000E000BF74
:1017C00000BF10BDE400002058000020AF00002042
:1017D0000008014010B59F4890F865000A287DD2A6
:1017E000DFE800F0057C7C1E4CA9F41AF3F299485E
:1017F000006E80B9974890F86D0000EB4000964964
:1018000001EB8000416893484167032180F865102F
:10181000002180F867101BE1262000F03BF917E15A
:101820008C4890F8690038B9192000F033F9042188
:10183000884880F865101BE0864890F86900012808
:1018400007D1192000F02FF90421824880F8651093
:101850000EE0804890F86900022809D100207F49F5
:101860000870192000F016F905217A4880F86510F3
:10187000784890F8691080F86B10E9E0754890F8A6
:10188000691090F86B00814208D000F015F9002132
:10189000704880F86510C8210166D9E06D4890F85D
:1018A000670010B1012843D119E06A48406FA0B920
:1018B00020216B48FFF780FA78B9664890F86D00F0
:1018C00000EB4000644901EB800081686148C1671A
:1018D000012180F8671000F0EFF82AE0B7E05D48DA
:1018E000C06F20BB5B4890F86D0000EB40005A4988
:1018F00001EB8000416857484167002180F867107C
:1019000090F8690038B9192000F0C4F80421514852
:1019100080F865100BE04F4890F86900012806D167
:10192000192000F0C0F804214A4880F8651000E052
:1019300000BF00BF8CE0474890F8691090F86B003A
:10194000814206D000F0B8F80021424880F86510C6
:101950007EE0404890F8670020B1012850D002286E
:1019600066D134E03B48406FA8B920213C48FFF7DE
:1019700023FA40BB374890F86D0000EB4000364931
:1019800001EB800081683348C167012180F867104E
:1019900000F092F817E02F48006EA0B920213048DF
:1019A000FFF70AFA78B92B48C08800F57A70294900
:1019B00008660221274880F8671000F07DF84FF490
:1019C000FA702449886534E040E03EE033E0214885
:1019D000806D00B12DE02148007830B901201F4909
:1019E0000870192000F05FF805E000201B4908701E
:1019F000192000F04FF80021164880F8671018E011
:101A00001448C06F98B9002014490870114890F824
:101A10006D0000EB4000104901EB800041680D486B
:101A20004167002180F86710192000F033F800E0CA
:101A300000BF00BF0CE00748C06F28B900F03CF8B9
:101A40000921044880F8651002E001E000E000BFD1
:101A500000BF10BDE400002058000020B0000020AE
:101A60000008014010B504462146272000F04AFC3A
:101A700000F05CFC10BD10B504462146272000F0A4
:101A800063FC00F031FC10BD10B500F02DFC00F03F
:101A90004DFC10BD10B504462146272000F076FC11
:101AA00000F088FC10BD10B504462146272000F048
:101AB0008FFC00F05DFC10BD10B500F059FC00F08B
:101AC00079FC10BD08B50121082000F093F8302002
:101AD000ADF8000003208DF8020048208DF80300C7
:101AE00069460248FFF7DDF808BD00000008014024
:101AF000704710B54FF4A06000F03AF810BD000038
:101B000070B5002100230F22C47804B3154C24685B
:101B100004F4E064C4F5E064210AC1F10403CA409E
:101B2000447804FA03F184781440214309010E4CEF
:101B30000678A155047804F01F050124AC4005780F
:101B40006D11AD0005F1E025C5F8004109E004780C
:101B500004F01F050124AC40044D0678761145F8C9
:101B6000264070BD0CED00E000E400E080E100E004
:101B700002490143024A1160704700000000FA0563
:101B80000CED00E07047000010B5002409E0601C77
:101B9000C4B2142002F084FBFA2C02D100BF20460C
:101BA00010BD034800680028F1D12046F8E7000086
:101BB0003001214229B1064AD2690243044BDA615D
:101BC00004E0034AD2698243014BDA6170470000A6
:101BD0000010024029B1064A12690243044B1A61FF
:101BE00004E0034A12698243014B1A617047000006
:101BF0000010024029B1064A92690243044B9A61DF
:101C000004E0034A92698243014B9A6170470000E5
:101C10000010024029B1064AD2680243044BDA6040
:101C200004E0034AD2688243014BDA607047000047
:101C30000010024030B500210022002400232D4D69
:101C40006D6805F00C0121B1042905D0082923D1C4
:101C500005E0294D056022E0274D05601FE0254D78
:101C60006D6805F47012234D6D6805F4803402250B
:101C700005EB92421CB9214D554305600BE01D4D0B
:101C80006D6805F400351DB11C4D5543056002E03B
:101C9000194D5543056002E0174D056000BF00BFB8
:101CA000144D6D6805F0F0010909154D6B5C056870
:101CB000DD4045600F4D6D6805F4E061090A104D87
:101CC0006B5C4568DD4085600A4D6D6805F46051C8
:101CD000C90A0B4D6B5C4568DD40C560054D6D68FC
:101CE00005F44041890B074D6B5CC568B5FBF3F506
:101CF000056130BD0010024000127A0000093D006D
:101D0000240000203400002008B500200090814805
:101D100090F8980020B101284ED002287ED194E09E
:101D20007C48D0F89C0000B1F1E07B48007820B9F5
:101D30006946A42000F026F90CE0774800780128D5
:101D400004D16946A62000F01DF903E06946A820E9
:101D500000F018F9BDF80000B0F5487F16DCBDF8BA
:101D60000000C82812DBBDF800206B4801786BA08A
:101D700002F0A6FB64206749C1F89C00012081F8AD
:101D800098004FF4FA60C1F8A000C0E06248007803
:101D9000022807D1C8205F49C1F89C0000205E4995
:101DA0000870B4E01E205B49C1F89C005A480078D6
:101DB000401C59490870AAE05648D0F89C0000B170
:101DC000A5E05548007820B96946A42000F0DAF86B
:101DD0000CE051480078012804D16946A62000F0A3
:101DE000D1F803E06946A82000F0CCF8BDF8000067
:101DF000B0F5487F1EDCBDF8000064281ADBBDF892
:101E00000020454801784DA002F05AFB00204149CE
:101E100081F8A5003220C1F89C0000E072E00220A9
:101E200081F898004FF4FA60C1F8A00000203A4908
:101E300008706CE000203849087064203549C1F80A
:101E40009C00002081F8980061E03248D0F89C00A6
:101E500000B15CE03048007820B96946A42000F069
:101E600091F80CE02C480078012804D16946A6209E
:101E700000F088F803E06946A82000F083F8BDF878
:101E80000000B0F5487F16DCBDF80000642812DBC6
:101E9000BDF800202048017831A002F011FB00209D
:101EA0001D49087064201B49C1F89C004FF4FA607A
:101EB000C1F8A00025E01748D0F8A00060B92EA016
:101EC00002F0FEFA0120134981F8A500002081F8F4
:101ED0009800114908701AE00F480078022807D1CD
:101EE000C8200C49C1F89C0000200B4908700EE086
:101EF00009480078401C0849087014200549C1F8B9
:101F00009C0004E00020034981F8980000BF00BF56
:101F100008BD0000E4000020B500002020D3D0C898
:101F2000CBBDF8C8EB20B4ABB8D0C6F7A3BA2564D4
:101F3000202D2D3E202564206D6D0A0020D5E6B5AC
:101F4000C4D3D0C8CBBDF8C8EB20B4ABB8D0C6F76B
:101F5000A3BA2564202D2D3E202564206D6D0A0036
:101F600020B4ABB8D0C6F7A3BA2564202D2D3E20EF
:101F70002564206D6D0A0000C8CBC0EBBFAAA1A3E9
:101F8000A1A3000070B504460D4602230422214699
:101F9000284600F006F8002070BD10B501F086FB61
:101FA00010BD2DE9F04107460C4690461D4600261F
:101FB00001F012FC204601F0E1FB01F041FC012898
:101FC00004D101F023FC0120BDE8F08108F0FF00FE
:101FD00001F0D4FB01F034FC012803D101F016FC20
:101FE0000120F1E701F012FC1E2002F059F901F086
:101FF000F3FB44F0010001F0C1FB01F021FC0128DA
:1020000003D101F003FC0120DEE71E2002F048F9B5
:10201000002611E001F064FBA91B491E7854701CD6
:10202000A84202D102F01EFB01E002F001FB1E20DB
:1020300002F036F9701CC6B2AE42EBDB01F0E6FBF3
:102040000020C1E77047000010B51948807D0728BF
:1020500027D2DFE800F0042610171E2627001448B8
:1020600090F83C00012805D1822000F025F80620D8
:102070000F4988751AE0FF2000F01EF806200C4971
:10208000887513E0FF2000F017F8062008498875CE
:102090000CE00848007800F055F8062004498875DF
:1020A00004E000BF06200249887500BF00BF10BDD4
:1020B000E40000203A00002030B59BB005463821EE
:1020C0000DA8FEF736F8FF2D08D11B4800788DF8D3
:1020D00036001A4800788DF8370013E01848016878
:1020E00001918088ADF8080011208DF83600002499
:1020F00006E001A8015DE01C0DAA1154601CC4B2E9
:10210000302CF6DBAA208DF834008DF835503321C1
:102110000DA8FEF73DFC8DF8670055208DF868008E
:10212000002405E00DA9085D01F0B0FA601CC4B2FE
:10213000352CF7DB1BB030BD3C0000203B000020FD
:102140000501002030B59BB0054638210DA8FDF7EC
:10215000F0FFFF208DF8350002208DF836008DF855
:102160003750AA208DF83400002406E001A8015D54
:10217000201D0DAA1154601CC4B22F2CF6DB332194
:102180000DA8FEF705FC8DF8670055208DF8680056
:10219000002405E00DA9085D01F078FA601CC4B2C6
:1021A000352CF7DB1BB030BD10B500F001F810BDC9
:1021B0000CB50020019000903348006840F4803056
:1021C0003149086000BF3048006800F400300090DA
:1021D0000198401C0190009818B90198B0F5A06FC3
:1021E000F1D12948006800F4003010B101200090BE
:1021F00001E0002000900098012843D123480068A6
:1022000040F01000214908600846006820F00300F3
:1022100008600846006840F0020008601A484068FC
:10222000194948600846406848600846406840F4DC
:10223000806048600846406820F47C10486008468A
:10224000406840F4E81048600846006840F080703C
:10225000086000BF0C48006800F000700028F9D04A
:102260000948406820F00300074948600846406874
:1022700040F00200486000BF0348406800F00C00D6
:102280000828F9D10CBD00000010024000200240D7
:1022900010B50021014800F0B4FE10BD000400405C
:1022A00070B504460D462146034800F0A4FE2946B9
:1022B000014800F0A6FE70BD0004004010B50021EA
:1022C000014800F0A0FE10BD0004004070B50446B7
:1022D0000D462146034800F08EFE2946014800F0D5
:1022E00092FE70BD0004004010B500200349087044
:1022F0000021034800F081FE10BD0000CC0000204A
:102300000008004070B504460D46012005490870DC
:102310002146054800F06FFE2946034800F06DFE97
:1023200070BD0000CC0000200008004010B5002067
:10233000034908700021034800F061FE10BD000051
:10234000CD0000200008004070B504460D46012075
:10235000054908702146054800F04DFE294603480E
:1023600000F04DFE70BD0000CD00002000080040D0
:1023700010B50020034908700021034800F041FE19
:1023800010BD0000CE0000200008004070B50446DB
:102390000D460120054908702146054800F02BFE36
:1023A0002946034800F02DFE70BD0000CE0000203D
:1023B0000008004010B500200349087000210348C0
:1023C00000F021FE10BD0000CF00002000080040FA
:1023D00070B504460D4601200549087021460548A0
:1023E00000F009FE2946034800F00DFE70BD000014
:1023F000CF0000200008004038B5FFF745FBFFF78D
:102400005BFBD4480023D44A11460090D34800F027
:102410008BFBD348D149C1F89C0FD2490868FEF71D
:1024200099FBD14948830E21CF482E30FDF781FE1C
:10243000CD48408B4FF6FF71884207D0CA48408B89
:10244000062803DAC848408B002868D10120C64915
:10245000488300240DE0C34901220868C2491A31AB
:10246000FEF7ACFB00B906E0142001F0F3FE601C9F
:10247000C4B2082CEFDB00BF00241AE0002104EBFB
:102480004402B9482130815404EB440210444170A5
:10249000012104EB4402B44821301044817034B966
:1024A000022104EB4402B048213010444170601C0A
:1024B000C4B2022CE2DB002422E004EB4401AA486F
:1024C00021300844817804EB4402A7482E301044A0
:1024D000817004EB4401A44821300844417804EBA6
:1024E0004402A1482E301044417004EB44019E4840
:1024F0002130415C04EB44020D308154601CC4B2B5
:10250000022CDADB0021984881860146498B954AE6
:1025100052F82100072294492E31FEF74FFB9249D1
:10252000498B904A52F8210007228F492E31FEF73D
:1025300014FB002453E08C482E3030F814004FF682
:10254000FF71884249D100251AE0002105EB4502C0
:1025500085482130815405EB45021044417001212A
:1025600005EB4502804821301044817034B90221C6
:1025700004EB44027C48213010444170681CC5B211
:10258000022DE2DB002422E004EB440176482130F6
:102590000844817804EB440273482E301044817063
:1025A00004EB4401704821300844417804EB4402B4
:1025B0006D482E301044417004EB44016A482130CC
:1025C000415C04EB44020D308154601CC4B2022C07
:1025D000DADB00216448818603E0601CC4B2032C6E
:1025E000A9DB00BF002419E004EB44015E482E3053
:1025F0000844817804EB44025B4821301044817028
:1026000004EB440158482E300844417804EB44025E
:102610005548213010444170601CC4B2022CE3DBE9
:10262000514890F83400504981F8A500084690F8C8
:10263000A50038B1084690F8A500012802D0002076
:1026400081F8A50000242CE004EB44014648213029
:102650000844417844486830015504EB4401473848
:102660000844817840486C300155005D00EB400023
:102670003E4901EB800041683B48703040F824102F
:10268000001F005D00EB4000384901EB80008168CD
:102690003548783040F8241001210A300155601C7B
:1026A000C4B2022CD0DB00202F4981F8B00081F8A1
:1026B0009800C1F89C00C1F8A000087448748874A0
:1026C000C860C8808883488181F82000886506201A
:1026D00088750020C87581F83C00012081F8A500AC
:1026E00081F8A600002081F8A400002407E0012161
:1026F0001D4884300155801E0155601CC4B2022C57
:10270000F5DB002405E00021174845300155601C29
:10271000C4B2022CF7DB002406E000211248483046
:1027200040F82410601CC4B2022CF6DB00240DE03B
:1027300000210D485C3040F8241008300155801C01
:102740000155223040F82410601CC4B2022CEFDB8B
:1027500038BD00000000A0400000FA44C001002085
:1027600000007A4440000020E400002058000020CF
:1027700010B54D4890F8200000B910BD4B480078C6
:1027800030B1012837D0022850D003286FD17BE028
:102790000E2145482E30FDF7CCFC002422E004EB4E
:1027A0004401414821300844817804EB44023E480A
:1027B0002E301044817004EB44013B482130084422
:1027C000417804EB440238482E301044417004EB49
:1027D000440135482130415C04EB44020D30815402
:1027E000601CC4B2022CDADB00212F488186012054
:1027F0002E49087055E02C49498B2D4A52F821008A
:10280000072229492E31FEF7D9F958B12948007815
:10281000401C28490870022024490870642022497D
:10282000C88302E00320214908703AE01E48C08BAB
:1028300028BB01201D4908701E4801780078401C03
:102840001C4A107007291EDB1748408B401C80B2C1
:1028500015494883062813DA00240EE014490122A2
:10286000086811491A31FEF7A9F908B907E014E020
:10287000142001F0EFFC601CC4B2032CEEDB02E07C
:1028800003200A4908700CE00020074981F8200065
:10289000064908700749087003E0032003490870DF
:1028A00000BF00BF00BF68E7E4000020B8000020C0
:1028B00040000020B900002064490968491C634AAF
:1028C0001160634A11884A1C614B1A80B1F57A7F06
:1028D00010DB00211A4611805C49898B51B15B499C
:1028E000898B491E594A91831146898B11B901215F
:1028F00082F82010554991F8B01081B1534991F8F0
:10290000B010491E514A82F8B010114691F8B0102B
:1029100029B95049098841F400414E4A11804B4978
:10292000D1F8A81031B14949D1F8A810491E474A39
:10293000C2F8A8104549D1F89C1031B14349D1F8EB
:102940009C10491E414AC2F89C104049D1F8A01081
:1029500031B13E49D1F8A010491E3C4AC2F8A0103E
:102960003A494989052902D10021384A518137491C
:10297000C96821B13549C968491E344AD160334913
:10298000C98B21B13149C98B491E304AD1832F49A6
:10299000896D21B12D49896D491E2C4A9165002010
:1029A00051E02A495C3151F8201041B127495C318E
:1029B00051F82010491E254A5C3242F82010234964
:1029C000703151F8201041B12049703151F8201078
:1029D000491E1E4A703242F820101C49783151F8C5
:1029E000201031B11949783151F82020521E41F898
:1029F00020201649883151F8201041B113498831FF
:102A000051F82010491E114A883242F820100F490F
:102A1000903151F8201031B10C49903151F82020FB
:102A2000521E41F820200949483151F8201041B187
:102A30000649483151F82010491E044A483242F8EC
:102A40002010411CC8B20228ABDB7047E400002014
:102A50000E000020C2000020042808D14FF0E02121
:102A6000096941F004014FF0E022116107E04FF0E5
:102A7000E021096921F004014FF0E0221161704763
:102A800010B520480088401C1E4908801E48008858
:102A9000401C1D4908801D480088401C1B490880B7
:102AA0001B48008820B11A480088401E1849088039
:102AB00018480088401C80B216490880B0F57A7F1B
:102AC0001EDB0020088014480078C8B1FEF784F9A6
:102AD00012480068401C11490860052810D90020E0
:102AE000086000BF0E48006800F4E0600D4908432C
:102AF000001D0B490860BFF3408F00BF00BFFEE719
:102B000010BD0000080000200A0000200C0000207A
:102B100038000020AC00002000000020040000204D
:102B20000CED00E00000FA052DE9F04F85B00546F8
:102B30000E4617469846002441463846FDF76FFB7F
:102B4000049037E04FF080413046FDF7A0FB4FF096
:102B5000804103903046FDF79AFB01902046FDF737
:102B6000D4FB00900199FDF75AFB02900E99FDF7F6
:102B70005CFB83460399FDF78AFB82468AF000409E
:102B8000029001F0B3FB4FF07E510390FDF7F5FA90
:102B9000834659464FF07E50FDF779FB8146494602
:102BA0000498FDF742FB83464146FDF7E6FA45F8F7
:102BB0002400641C4FF080413046FDF768FB8346DB
:102BC0002046FDF7A2FB59460390FDF7BBFBB9D3A6
:102BD00005B0BDE8F08F000010B51348006840F064
:102BE00001001149086008464068104908400E4934
:102BF0004860084600680E4908400B4908600846CE
:102C0000006820F4802008600846406820F4FE0038
:102C100048604FF41F008860FFF7C6FA4FF000606D
:102C20000449086010BD0000001002400000FFF8D9
:102C3000FFFFF6FE08ED00E010B50121880700F067
:102C400065F840B10121880700F042F80248C088C9
:102C5000401C0149C88010BDE400002010B50121CE
:102C6000014800F053F810BD0004004010B50121E8
:102C7000044800F04BF818B10121024800F028F890
:102C800010BD00000008004008B54FF4E060FEF7FA
:102C90006FFF1E208DF8000000208DF8010003203A
:102CA0008DF8020001208DF803006846FEF728FF2A
:102CB00008BD21B1028842F08002028004E002884F
:102CC0004FF67F731A4002807047CA4302827047F2
:102CD000CA430282704721B1028842F00102028099
:102CE00004E002884FF6FE731A400280704731B14B
:102CF000B0F8442042F40042A0F8442005E0B0F8C7
:102D00004420C2F30E02A0F84420704730B50246BA
:102D1000002000230024158A05EA0103958905EAAD
:102D2000010413B10CB1012000E0002030BD1AB144
:102D300083890B43838102E083898B4383817047BE
:102D400070B5002400220023058C4FF6FE76354036
:102D50000584028C8388048B4FF68F752C40B51E3A
:102D60002C400D882C43751E2A400D892A434D881E
:102D70002A43144DA8420BD0134DA84208D0134D3E
:102D8000A84205D0124DA84202D0124DA84213D13C
:102D90004FF6F7752A404D892A434FF6FB752A40B6
:102DA0008D882A434FF6FF652B404FF6FF552B4089
:102DB0008D892B43CD892B4383800483CD888586E1
:102DC000028470BD002C01400034014000400140ED
:102DD00000440140004801400A460021018B4FF6A3
:102DE000F7731940114301837047000070B5002448
:102DF00000220023058C4FF6EF7635400584028CC7
:102E00008388048B48F6FF752C404FF6FF452C4015
:102E10000D884FF6FF7606EA05252C434FF6DF7541
:102E20002A400D8906EA05152A434D8806EA05154C
:102E30002A43154DA84202D0144DA8421DD14FF689
:102E40007F752A404D894FF6FF7606EA05152A431D
:102E50004FF6BF752A408D8806EA05152A434FF6BE
:102E6000FF352B404FF2FF752B408D8906EA850513
:102E70002B43CD8906EA85052B4383800483CD88C7
:102E80000587028470BD0000002C01400034014021
:102E90000A460021018B4FF2FF7319404FF6FF7372
:102EA00003EA0223194301837047000070B5002430
:102EB00000220023058C4FF6FF6635400584028C06
:102EC0008388848B4FF68F752C404FF6FC752C4011
:102ED0000D882C434FF6FF552A400D894FF6FF769B
:102EE00006EA05252A434D8806EA05252A43154D9D
:102EF000A84202D0144DA8421DD14FF2FF752A40BE
:102F00004D894FF6FF7606EA05252A434FF6FF3531
:102F10002A408D8806EA05252A434EF6FF752B4088
:102F20004DF6FF752B408D8906EA05152B43CD899B
:102F300006EA05152B4383808483CD888587028428
:102F400070BD0000002C0140003401400A46002101
:102F5000818B4FF6F773194011438183704700004E
:102F600070B5002200230024058C4EF6FF76354014
:102F70000584038C8488828B48F6FF752A404FF6BF
:102F8000FF452A400D884FF6FF7606EA05252A43BD
:102F90004DF6FF752B400D8906EA05352B434D880C
:102FA00006EA05352B430B4DA84202D00A4DA84234
:102FB00008D14BF6FF752C408D894FF6FF7606EA57
:102FC00085152C4384808283CD88A0F840500384EB
:102FD00070BD0000002C0140003401400A46002171
:102FE000818B4FF2FF7319404FF6FF7303EA022300
:102FF00019438183704781857047818670470187B7
:10300000704781877047A0F84010704781847047EF
:10301000002202881D4B98420ED01D4B98420BD0C7
:10302000B0F1804F08D01B4B984205D01A4B984204
:1030300002D01A4B984204D14FF68F731A404B8836
:103040001A43174B984207D0164B984204D04FF6BC
:10305000FF431A40CB881A4302808B8883850B88F4
:1030600003850A4B98420BD0094B984208D00E4B6F
:10307000984205D00D4B984202D00D4B984201D199
:103080000B7A03860123838270470000002C0140E5
:10309000003401400004004000080040000C0040E3
:1030A0000010004000140040004001400044014076
:1030B0000048014010B50548008800F4004020B1E8
:1030C00000F0D6F900200149088010BDC2000020A0
:1030D00010B540F22551134800F003F908B3114828
:1030E00000F0BAF9C4B21048008800F40040C0B93A
:1030F0000D480088B0F5C87F0DDA0C48C088143040
:103100000A4981F8B00008490888411C064A118024
:1031100007490C5405E00448008840F40040024987
:10312000088010BD00380140C2000020E4000020EB
:10313000D811002010B540F22551164800F0D1F802
:10314000F8B1144800F088F9C4B21348008800F4BC
:103150000040B0B910480088B0F5C87F12DA0021ED
:103160000E48FFF753FF0C48008818B901210B489F
:10317000FFF7B1FD08490888411C074A118008493A
:103180000C5405E00448008840F4004002490880DF
:1031900010BD000000440040C400002000080040B2
:1031A000F814002010B540F22551164800F099F8A7
:1031B000F8B1144800F050F9C4B21348008800F484
:1031C0000040B0B910480088B0F5C87F12DA00217D
:1031D0000E48FFF71BFF0C48008818B901210B4867
:1031E000FFF779FD08490888411C074A1180084902
:1031F0000C5405E00448008840F40040024908806F
:1032000010BD000000480040C6000020000800403B
:103210001818002021B1828942F40052828104E012
:1032200082894DF6FF731A408281704710B50446BB
:103230002048844209D101218803FEF7EBFC0021DC
:103240004FF48040FEF7E6FC32E01B48844209D18F
:1032500001214804FEF7BEFC00214FF40030FEF7C8
:10326000B9FC25E01548844209D101218804FEF704
:10327000B1FC00214FF48020FEF7ACFC18E01048B0
:10328000844209D10121C804FEF7A4FC00214FF4B7
:103290000020FEF79FFC0BE00A48844208D1012180
:1032A0000805FEF797FC00214FF48010FEF792FC12
:1032B00010BD0000003801400044004000480040BC
:1032C000004C00400050004002460020B1F5007F55
:1032D00000D100BF13880B400BB1012000E000209B
:1032E000704770B50246002400230025002040F6F8
:1032F0006A16B14200D100BFC1F3421501F01F03AD
:10330000012606FA03F3012D02D19689334006E027
:10331000022D02D1168A334001E0968A33400C1206
:10332000012606FA04F41688344013B10CB10120CA
:1033300000E0002070BDF0B5034600240026002503
:10334000002040F66A17B94200D100BF1846C1F309
:10335000421401F01F06012707FA06F5012C01D1DE
:103360000C3004E0022C01D1103000E014301AB10E
:1033700007682F43076002E00768AF430760F0BDAE
:103380002DE9F04786B005460E460024A24600BF50
:10339000A1460027B08900B100BF2F462C8A4CF609
:1033A000FF700440F08804432C82AC894EF6F31081
:1033B0000440B08831890843718908430443AC81D3
:1033C000AC8A4FF6FF400440B0890443AC8201A8A8
:1033D000FEF730FC1F48874202D1DDF810A001E063
:1033E000DDF80CA0A88900F4004040B10AEBCA0047
:1033F00000EB0A1031684900B0FBF1F807E00AEB76
:10340000CA0000EB0A1031688900B0FBF1F86420B3
:10341000B8FBF0F004012009642101FB1089A889A0
:1034200000F4004040B1322000EBC900B0FBF1F0E5
:1034300000F00700044308E0322000EB091064218B
:10344000B0FBF1F000F00F0004432C8106B0BDE8A2
:10345000F08700000038014001468888C0F308006A
:103460007047C1F308028280704700BFFEE700008A
:103470002DE9FC4100260020009001900027AA20A1
:103480008DF8000069467C48FCF75EFE044614B9DE
:10349000701EBDE8FC81607A552802D04FF0FF30E5
:1034A000F7E7002504E0605D3844C7B2681CC5B288
:1034B0000A2DF8DB542F02D04FF0FF30E9E794F8E3
:1034C0000180A8F1020009287AD2DFE800F00C059B
:1034D0007A8794C3A8B7BD000120684981F83C00F1
:1034E00000208875C4E0A078FF2832D100252DE0A7
:1034F000A17905EB45026148213010444170E17922
:1035000005EB45025D48213010448170A1795B488C
:1035100068304155E179001D4155405D00EB4000A8
:10352000574901EB800041685448703040F825103D
:10353000001F405D00EB4000514901EB80008168B5
:103540004E48783040F82510681CC5B2022DCFDBFC
:1035500030E0A179A07800EB4002484821301044C7
:103560004170E179A07800EB4002444821301044DA
:103570008170A179A278414868308154E179A278BC
:10358000001D8154A178465C06EB46003C4901EBE6
:1035900080004168A2783948703040F8221006EB6C
:1035A0004600374901EB80008168A27833487830C3
:1035B00040F822103148C0881E303049888357E0D7
:1035C00048E0A0780A2808DC01202C4988740220F1
:1035D000087400204874A078888249E0A0780A28FE
:1035E00008DC0120254988740320087400204874F1
:1035F000A07888823CE0A078FF280AD1002505E069
:1036000061791E4882304155681CC5B2022DF7DB36
:1036100004E06179A27819488230815428E0A078CA
:1036200010B1A078012803D1A078144981F8A50031
:103630001248C0881E301149888319E001200F49C3
:1036400088740020087413E000200C498874052059
:1036500008740DE003200B490870FF200A49087028
:103660000648807D062802D102200449887500BFE3
:1036700000BF00200DE70000D8110020E40000206A
:10368000580000203B0000203C00002010B50446FC
:1036900021460548FFF7E5FE00BF80210248FFF7FD
:1036A00013FE0028F9D010BD0038014008B50121F3
:1036B0000420FEF79FFA0620ADF8000010208DF8D8
:1036C000030003208DF8020069460448FDF7E9FA7B
:1036D00006210248FDF77BFB08BD00000008014001
:1036E00070B500242248006820F47060204908600A
:1036F0000846006840F4006008601D48103000680B
:1037000040F004001A49103108600120194908608E
:10371000052000F0C5FD002517E000201549091F10
:103720000860052000F0BCFD01201349C1F88401A8
:10373000052000F0B5FD6006040E0E4880380068D4
:1037400008B1601CC4B2681CC5B2082DE5DB0020BE
:103750000849091F08600648006820F470600449A1
:1037600008600846006840F440700860204670BD5C
:1037700000080140880121420000214270B5044642
:10378000002013490860052000F08AFD00251CE098
:1037900004F0800020B101200D49091D086003E0FC
:1037A00000200B49091D08606006040E012008492D
:1037B0000860052000F074FD00200649C1F884016E
:1037C000052000F06DFD681CC5B2082DE0DB70BD62
:1037D000840121420000214210B5012009490860FE
:1037E0000949C1F884011E2000F05AFD0020054956
:1037F00008601E2000F054FD00200349C1F8840138
:1038000010BD0000880121420000214210B50020B7
:10381000094908600949C1F888011E2000F040FDEF
:103820000120054908601E2000F03AFD01200349EF
:10383000C1F8880110BD000084012142000021422E
:1038400070B500252448006820F4706022490860A3
:103850000846006840F4006008601F4810300068A7
:1038600040F004001C491031086001201B49086029
:1038700000201B49C1F88401052000F011FD012042
:103880001649091F086042F2107507E01348803896
:10389000006808B1012401E0002403E02800A5F13C
:1038A0000105F3D100BF00200C49091F0860052065
:1038B00000F0F6FC0848006820F4706006490860D3
:1038C0000846006840F44070086001200449C1F8CF
:1038D0008801204670BD0000000801408801214297
:1038E0000000214237B514460846064B6A46214679
:1038F00000F0F2F804466946002000F084FC2046FF
:103900003EBD0000074200084100080218BF042025
:103910000A0E18BF40F001004FF07F4232EA010169
:1039200008BF40F00200012808BF052070470121B0
:10393000FCF790BD61214FF0E040FCF78BBD6FF0CC
:103940005E010807FCF786BD02E008C8121F08C127
:10395000002AFAD170477047002001E001C1121F10
:10396000002AFBD170470000014908607047000041
:10397000E00000202DE9FF5FDDE90220010DDDF808
:1039800038B0024318D044F61050A1F2FF31414341
:103990000D140F98012820D0A5EB0B00401C5FEA06
:1039A000000A4FF00004474EDFF81C91A046504635
:1039B00016D5CAF1000728E00F98012443A2012878
:1039C00008D0002100980F9BC0E90021C0E9024304
:1039D000BDE8FF9F6FEA0B01F4E7CBF10000DEE7E3
:1039E000074612E0F80707D02246334640464946CC
:1039F000FCF701FE804689462246334610461946AA
:103A0000FCF7F9FD04460E467F10002FEAD1DDE9F0
:103A10000201BAF1000F42464B4602DAFCF7EBFD19
:103A200001E0FCF75AFE04460E460022284BFCF744
:103A3000F5FE03D84FF0FF30014607E00022254B8A
:103A400020463146FCF730FDFCF7CFFE102409E09C
:103A5000002C0ADB0A220023FCF794FC019B303285
:103A60001A55641E50EA0102F2D1641C019AC4F195
:103A7000110314440F9A012A03D0012208430DD1E7
:103A80000AE0084304D000204FF0110B0F9080E7AC
:103A9000A3EB0B056D1E0DE05B4504DD4FF000024E
:103AA00005F1010504E003DA4FF00002A5F101057C
:103AB000002AECD000980F99C0E90231C0E9004516
:103AC00086E70000000024400000F03F30000000C6
:103AD0000000F0430000E03F2DE9FF4F95B09B460A
:103AE0008946064600250FE2252877D1002427467F
:103AF000F84A0121059400E0044316F8013F203BF9
:103B000001FA03F01042F7D130782A2811D06FF073
:103B10002F033078A0F13002092A16D8059A44F014
:103B2000020402EB820203EB42021044761C059071
:103B3000EFE759F8042B0592002A03DA504244F4C7
:103B40000054059044F00204761C30782E2816D1DB
:103B500016F8010F44F004042A280DD06FF02F024C
:103B60003078A0F13003092B09D807EB870302EB6B
:103B70004303C718761CF3E759F8047B761C3078AA
:103B80006C280FD006DC4C2817D068280DD06A2886
:103B900014D104E0742810D07A280FD10DE044F439
:103BA00000140AE044F4801401E044F440147278F4
:103BB000824202D104F58014761C761C3078662887
:103BC0000BD013DC582877D009DC002875D04528A5
:103BD000F6D04628F4D047281AD19DE118E0632892
:103BE00035D0642879D0652812D195E1702873D03A
:103BF00008DC6728F1D069286FD06E280DD06F28B7
:103C000006D1B5E073282CD0752875D0782874D0EB
:103C10005A46179990476D1C75E1C4F3025002286B
:103C200009D003280DD0D9F8001004280DD00D605C
:103C300009F1040967E1D9F80010EA17C1E9005257
:103C4000F6E7D9F800100D80F2E70D70F0E719F8EB
:103C5000041B8DF8001000208DF80100EA460120B9
:103C600003E059F804AB4FF0FF3061074FF000015B
:103C700002D40DE008F101018846B9420FDA80450F
:103C8000F8DB1AF808100029F4D108E008F1010166
:103C900088468142FADB1AF808100029F6D1059807
:103CA0005B46A0EB080721463846179A00F094FAC5
:103CB000284400EB080507E04DE029E10DE01AF883
:103CC000010B5A4617999047B8F10108F7D25B46A5
:103CD00021463846179A13E142E00A220092C4F3C3
:103CE00002524FF0000A022A08D059F804CB032AE6
:103CF0004FEAEC710AD00DE029E02AE009F1070152
:103D000021F00702F2E802C1914609E00FFA8CFCAB
:103D10004FEAEC71042A03D14FFA8CFC4FEAEC71A4
:103D2000002907DA0A460021DCF1000C61EB0201F0
:103D30002D2202E0220504D52B228DF80420012239
:103D400003E0E20701D02022F7E7904659E00A217C
:103D500002E010220DE010214FF0000A00910BE06C
:103D600010224FF0000A44F004040827009203E0F8
:103D700008224FF0000A0092C4F30252022A05D032
:103D800059F804CB0021032A08D009E009F1070102
:103D900021F00702F2E802C1914605E01FFA8CFC0F
:103DA000042A01D10CF0FF0C4FF00008220728D59F
:103DB000702806D0009B83F0100353EA0A0305D055
:103DC0000EE040228DF80420012208E05CEA0102A6
:103DD00006D030228DF804208DF80500022290468E
:103DE000009B83F0080353EA0A030AD15CEA01024C
:103DF00001D1620705D530228DF804204FF001086B
:103E00007F1E582804D034A003900EA802900DE025
:103E100036A0F9E753466046009AFCF7B3FA8446A9
:103E20000398825C0298401E029002705CEA0100D6
:103E3000F0D1029806A9081A00F1200A600702D5FD
:103E400024F4803400E00127574502DDA7EB0A0087
:103E500000E0002000EB0A01009005984144401A60
:103E60000590E00306D45B462146179A059800F0BA
:103E7000B3F90544002706E001A85A46C05D17992A
:103E800090476D1C7F1C4745F6DBE0030CD55B4675
:103E90002146179A059800F09FF9054404E0302068
:103EA0005A46179990476D1C0099481E00900029AA
:103EB000F5DC08E0029802995A460078491C029104
:103EC000179990476D1CBAF10001AAF1010AF1DCC3
:103ED00065E10000092801003031323334353637CE
:103EE0003839616263646566000000003031323346
:103EF00034353637383941424344454600000000E6
:103F000000F058F90544761C307800287FF4ECADB9
:103F100019B02846BDE8F08F620700D4062709F1E2
:103F2000070222F0070CFCE80223E14603F00048F8
:103F30005FEA080C02D00FF2702C0DE05FEA045C1F
:103F400002D50FF2682C07E05FEAC47C02D00FF2C2
:103F5000602C01E0AFF2700C4FF0FF3823F000430B
:103F6000CDF850C065280CD006DC452809D046287D
:103F70001DD047283DD13DE0662818D067287ED166
:103F800038E00021112F01DB112000E0781CCDE981
:103F9000000106A90EA8FFF7EDFCDDE90F010E9A5E
:103FA00003910021009207F1010A04914DE04FF0C6
:103FB00000400097CDE9011006A90EA8FFF7DAFC32
:103FC000DDE90F0203920E9B11990022DDF80CA08F
:103FD0000093049211B9791C00EB010AB7EB0A00B7
:103FE00004D4C0F1FF3007F1010A0490AAEB0700E6
:103FF000019044E0012F00DA01270021112F01DD9B
:10400000112000E03846CDE9000106A90EA8FFF70F
:10401000B1FCDDE90F010E9A039100210491009299
:10402000BA4621070CD40399514500DA8A46BAF101
:10403000010F05DD009AAAF10101515C302908D079
:10404000B84202DA10F1040F06DA0121CDE90110BD
:1040500015E0AAF10101E9E7002805DC0499014413
:104060000491AAEB000102E0411C514500DD8A46A3
:104070000499401A401C01904FF000400290200724
:1040800004D40198504501DBCDF8048000208DF860
:104090004F0002980DF14F07B0F1004F25D02B20B3
:1040A0000E9002984FF0020800280CDA404202906D
:1040B0002D200E9007E00A210298FCF74DF93031CF
:1040C000029007F8011DB8F10001A8F10108F2DC27
:1040D00002980028EFD1791E0E980870307800F011
:1040E000200040F0450007F8020D12A8C01B00F1A7
:1040F00007081498007800B1012000EB0A0101982C
:1041000001EBE07105984144401A401E0590E00320
:1041100006D45B462146179A059800F05DF80544E1
:104120001498007818B15A46179990476D1CE0030F
:1041300024D55B462146179A059800F04DF80544B2
:104140001CE00498002807DBDDE90301884203DD59
:104150000098405C179901E0179930205A46904723
:10416000049805F10105401C04900198401E01903F
:1041700004D12E205A46179990476D1CBAF10001C0
:10418000AAF1010ADDDC05E017F8010B5A46179980
:1041900090476D1CB8F10001A8F10108F4DC5B4602
:1041A0002146179A0598ABE62D0000002B00000071
:1041B000200000002DE9F041044600251E46174668
:1041C000880404D405E039462020B0476D1C641EE5
:1041D000F9D52846BDE8F0812DE9F04104460025D7
:1041E0001E469046C80301D5302700E020278804EA
:1041F00004D505E041463846B0476D1C641EF9D52C
:104200002846BDE8F0810A68531C0B6010707047A7
:1042100010B56FF00400FEF71FFC0A4800680A4959
:10422000B0FBF1F0094908700846007800EB400146
:10423000C1EBC0104FF6FF7101EAC00004490880CD
:1042400010BD00001000002000127A00DA000020EB
:10425000DC0000200146114A12884A434FF0E02357
:104260005A6100229A611A46126942F001021A61EB
:1042700000BF4FF0E022106900F001021AB100F413
:104280008032002AF5D04FF0E022126922F00102BC
:104290004FF0E0231A6100229A617047DC00002091
:1042A0000146114A12784A434FF0E0235A61002236
:1042B0009A611A46126942F001021A6100BF4FF07A
:1042C000E022106900F001021AB100F48032002AE5
:1042D000F5D04FF0E022126922F001024FF0E02306
:1042E0001A6100229A617047DA0000202DE9F0413E
:1042F00004464FF019404E49002500EB4400884227
:104300004AD84C492046FBF790FFFCF7AFF88046AF
:10431000FCF752FA064648494046FBF786FF074637
:1043200046494046FBF781FF2146FBF77BFF3946B4
:10433000FBF775FF04464249FBF777FF4149FBF75E
:104340001CFF2146FBF771FF6FF04141FBF715FFA2
:104350002146FBF76AFF3C49FBF70FFF2146FBF7BD
:1043600064FF0146394806F00304784450F82400FD
:10437000FBF75BFF3649794451F82410FBF7FDFE4B
:104380003449794451F82410FBF7F7FEB11085BB8E
:10439000BDE8F041FCF75EB84FF0FF4131EA0400A0
:1043A00018D04FF0CE41B1EB440F84BF4FF07E5098
:1043B000BDE8F0812849B1EB440F28BF0125A0D208
:1043C0000220FFF7D1FA14F0004F0ED0BDE8F04103
:1043D000FFF7B5BA204614F5000F04BF0020BDE872
:1043E000F081BDE8F041FFF7A2BABDE8F041FFF768
:1043F000A1BAFCF72FF804000BD0B4F1FF4F0FD097
:10440000FFF782FA042808BFFFF799FA2046BDE8B3
:10441000F0810220FFF7A8FABDE8F041FFF78FBA5C
:104420000220FFF7A1FABDE8F041FFF783BA0000D0
:104430000000501E3BAAB840F4FD05370070313E25
:1044400012BB2A3D12BB2A3EFFFF7F3F4A030000FA
:104450002E030000120300000000A085FFF7D8FE25
:10446000FDF747FBFDF799FDFCF7D0FDFDF72AFBB3
:10447000FCF778FD59214FF6FF70FCF7EFFFFDF7D1
:104480008CFD4FF4E13000F043F84FF4E13000F0E0
:104490009BF8FCF78FFAFDF7AFFFFCF7CDFB0BE0C5
:1044A000FCF7C6FF0548C08830B10448C088401EEC
:1044B0000249C880FEF700FAF2E70000E40000209D
:1044C0000FB438B505A800900F48009A0499FFF77B
:1044D00009FA002000900C48FBF748FE85B2002442
:1044E0000DE000BF40210948FEF7EEFE0028F9D09C
:1044F0000548015D0548FEF7B4FF601C84B2AC427C
:10450000EFDB38BC5DF814FBA81900200048004020
:1045100010B586B0044601210420FDF76BFB012194
:1045200044F20100FDF766FB2448FEF77FFE4FF4DE
:104530000070ADF8140003208DF8160018208DF8D7
:10454000170005A91E48FCF7ACFB4FF48060ADF8DE
:10455000140048208DF8170005A91948FCF7A1FBA5
:1045600001940020ADF80800ADF80A00ADF80C0089
:10457000ADF810000C20ADF80E0001A90F48FEF7B1
:10458000FFFE01210D48FEF745FE012240F22551B4
:104590000A48FEF7D0FE25208DF8000003208DF894
:1045A00001008DF8020001208DF80300002005496C
:1045B00008806846FDF7A4FA06B010BD0038014037
:1045C00000080140C200002010B586B00446012159
:1045D0008804FDF7EFFA01210920FDF70BFB4FF4EA
:1045E0008060ADF8140003208DF8160018208DF8B7
:1045F000170005A90C48FCF754FB01940020ADF806
:104600000800ADF80A00ADF80C00ADF810000C2061
:10461000ADF80E0001A90548FEF7B2FE01210348DE
:10462000FEF7F8FD06B010BD000C01400048004048
:1046300010B50020094908600949C1F88801052022
:10464000FFF72EFE0120054908600520FFF728FE30
:1046500000200349C1F8840110BD000084012142FB
:104660000000214210B500200949086001200949D5
:10467000C1F888010520FFF713FE012004490860F6
:104680000520FFF70DFE00200249C1F8840110BD8E
:1046900084012142000021420000803F0030983F09
:1046A0000000B53F0040D73F00000000320A7E39CD
:1046B0007F661E395B991F390000803FF037983FB5
:1046C000F304B53FFD44D73FE84600080000002052
:1046D000E400000048390008CC470008E40000204E
:1046E000541E0000583900080000000000000000BF
:1046F000000000000000000000A24A0400000000CA
:104700000000000001020304060708090000000081
:104710000102030401020304060708090204060853
:10472000000000000000000000E8000800EC0008A5
:1047300000F0000800F4000800F8000800FC000881
:1047400000000000002E9302002E930201000000E2
:10475000C0D40100B05F0E0002000000C0D4010010
:1047600000350C0003000000C0D4010008930A00CB
:1047700004000000C0D4010090B208000500000051
:10478000C0D401001092030006000000A60E000035
:104790000200000000000000000000000000000017
:1047A0000000000000000000000000000000000009
:1047B000C012000000000000000000000000000027
:0C47C000000000000000000000000000ED
:04000005080000ED02
:00000001FF
