:020000040800F2
:10000000A824002045010008992100084B1200088F
:10001000AD170008D109000867390008000000008A
:100020000000000000000000000000009B2300080A
:100030000F0E0008000000002D2200085D010008DE
:100040005F0100085F0100085F0100085F01000810
:100050005F0100085F0100085F0100085F01000800
:100060005F0100085F0100085F0100085F010008F0
:100070005F0100085F0100085F0100085F010008E0
:100080005F0100085F0100085F0100085F010008D0
:100090005F0100085F0100085F0100085F010008C0
:1000A0005F0100085F0100085F0100085F010008B0
:1000B000AD2F0008D12F0008F52F00085F010008C0
:1000C0005F0100085F0100085F0100085F01000890
:1000D0005F010008CD35000831360008A136000860
:1000E0005F0100085F0100085F0100085F01000870
:1000F0005F0100085F0100085F0100085F01000860
:100100005F0100085F0100085F0100085F0100084F
:100110005F0100085F0100085F0100085F0100083F
:100120005F0100085F0100085F0100085F0100082F
:10013000DFF80CD000F0ACFB004800472D48000869
:10014000A82400200648804706480047FEE7FEE74F
:10015000FEE7FEE7FEE7FEE7FEE7FEE7FEE7FEE777
:10016000D52C000831010008D2B201E000F8012BC3
:10017000491EFBD270470022F6E710B513460A4627
:1001800004461946FFF7F0FF204610BD30B505467E
:100190002A460B4612F8010B13F8014B08B1A04296
:1001A000F8D01CB1002802D06D1CF1E7284630BD04
:1001B000421C10F8011B0029FBD1801A7047F0B4D3
:1001C00080EA0102D40F4200B2EB410F02D2024694
:1001D000084611464A0042D0C30DDDB2C1F3C752F2
:1001E000AD1A202D35DAC1F3160141F4000204B135
:1001F0005242C5F1200602FA06F12A411044B3EB3F
:10020000D05F23D0C4B1012DA0EBC35009DCF0BCFA
:100210004FF0004202EAC352DBB200F5000000F0EA
:100220000DB9400000F1807000EBC350A0F1807068
:1002300040EAD170490009E0490841EAC071A0EBE9
:10024000C35000F50000400800EBC350F0BC00F0C4
:10025000ECB86142012202EB4101001BF6E7F0BC61
:10026000704781F00041AAE780F00040A7E780EAEC
:10027000010210B502F00043400022D04A001FD016
:10028000010E01EB1261C0F35600C2F3560240F4B6
:10029000000042F40002A0FB022000047F39140495
:1002A00000D0401C50EA124001D44000491EC2B2A6
:1002B0000C0604EBD010401C4008802A02D003E05A
:1002C000002010BD20F00100002900DA00201843B2
:1002D00010BD30B480EA010202F0004530F0004267
:1002E00021F0004013D090B1C30DD40DC2F316011C
:1002F000C0F31600E41A41F4000140F400027D341A
:10030000914201D3641C00E04900002C02DA30BCA9
:10031000002070474FF400000023914201D3891A56
:10032000034340084FEA4101F7D151B1914202D154
:100330004FF0004105E002D24FF0010101E06FF003
:10034000010103EBC450284430BC00F06EB8C10F6B
:1003500080EAE0700844CA079623002100F06EB8D6
:1003600020F00040C10DC0F3160040F400007F29CA
:1003700001DA00207047962903DCC1F19601C840DC
:100380007047963988407047002801DBC0F1004073
:10039000002901DBC1F100418142704730B50B46B5
:1003A000014600202022012409E021FA02F59D42A5
:1003B00005D303FA02F5491B04FA02F52844151E79
:1003C000A2F10102F1DC30BD2DE9F05F054600200D
:1003D00092469B4688460646814640241BE02846B6
:1003E00041464746224600F074FA53465A46C01A20
:1003F000914110D311461846224600F05BFA2D1A9F
:1004000067EB01084F4622460120002100F052FA16
:1004100017EB00094E41201EA4F10104DFDC484621
:1004200031462A464346BDE8F09F0029A8BF7047E1
:10043000401C490008BF20F00100704710B4B0FA1A
:1004400080FC00FA0CF050EA010404BF10BC7047B5
:1004500049B1CCF1200421FA04F411FA0CF118BFCF
:10046000012121430843A3EB0C01CB1D4FEA00619E
:100470004FEA102042BF002010BC704700EBC35071
:1004800010440029A4BF10BC7047401C490008BF9D
:1004900020F0010010BC7047420005D0C0F3C752E5
:1004A0005242914201DC0020704700EBC15070477E
:1004B00010B541000CD0C0F3C751962908DC7E2945
:1004C00009DC06DB410204D000F0004040F07E5021
:1004D00010BD002010BDC1F19604C4F1200100FA46
:1004E00001F1E040FFF7A1FFA04010BD2DE9FE4F54
:1004F000804681EA0300C00F0C46009021F00041C5
:1005000023F00045B8EB0200A94105D24046214640
:1005100090461C460B46024623F00040104347D04D
:10052000270DC7F30A00C3F30A510290401A019045
:1005300040286BDAC3F3130040F4801B0098924606
:1005400020B10023D2EB030A63EB0B0B0198594651
:10055000C0F14002504600F0ADF906460D46504647
:100560005946019A00F0C5F910EB080061410024DA
:1005700087EA115284EAE7731A4340D0009A62B3C3
:10058000019A012A4FEA075215DC001B61EB0201B8
:100590004FF0004202EA0752CDE90042001C41F54B
:1005A000801132462B4600F0C5F903B0BDE8F08F4C
:1005B00040462146F9E7001B61EB0201001C41F5B2
:1005C000801300185B412018A2F5001747EB0301C8
:1005D00040EAD570B6196D4111E06D084FEA360654
:1005E00045EAC0754FEA0752001B61EB0201001C8F
:1005F00041F5801149084FEA300000195141324657
:100600002B4603B0BDE8F04F00F085B900980122F9
:1006100040000023D0EB020263EBE0730098214618
:100620004FEAE074B8EB000061EB0401E9E783F006
:1006300000435BE781F0004158E72DE9FE4F81EA76
:10064000030404F0004421F0004100944FF0000B3B
:1006500023F0004350EA01045ED052EA03045BD069
:10066000C3F30A54C1F30A552C44A4F2F3340194A1
:10067000A0FB0254C1F3130141F48011C3F313032F
:1006800043F4801301FB024400FB034E840A970AE3
:1006900044EA815447EA8357A4FB076802958D0A10
:1006A00005FB07854FEA932C04FB0C542705029D9C
:1006B0004FEA065847EA1637B5EB08056EEB070C0C
:1006C000870E920E47EA811742EA8312A7FB0201C6
:1006D000B6EB0B0164EB00042B0D43EA0C335E1800
:1006E00044EB1C50DA465146E7FB0201C5F3130404
:1006F0004FEA0B3343EA14534FEA0432019C43EAB6
:100700000603A4F10C040294009CCDE900B400F0AF
:1007100011F903B0BDE8F08F00200146F9E72DE99B
:10072000F04D81EA030404F0004B21F0004514462B
:100730004FF0000A23F0004150EA050220D054EAAD
:1007400001021DD0C5F30A570246C5F31303C1F3D6
:100750001300C1F30A5640F4801543F48013A7EB4D
:100760000608101BD64608F2FD3873EB050002D3CD
:1007700008F1010801E092185B41B8F1000F03DABB
:1007800000200146BDE8F08D00204FF480110646A0
:1007900084460EE0171B73EB050705D3121B63EBB2
:1007A000050306434CEA010C49084FEA3000921851
:1007B0005B4150EA0107EDD152EA030012D082EA10
:1007C000040083EA0501084305D0101BAB4106D2A3
:1007D0000122002306E000224FF0004302E06FF008
:1007E000010253101AEB06004CEB085110EB0A0003
:1007F00041EB0B01BDE8F04D00F08DB800F0004278
:1008000020F00040C10DC0F3160040F400007F2925
:1008100001DA00207047962903DCC1F19601C84037
:1008200001E096398840002AF4D040427047C1F375
:100830000A52C1F3130140F2FF3341F480119A428E
:1008400002DA00200146704740F233439A42A2F296
:10085000334202DC524200F03CB800F02BB80000FA
:1008600030B5041E71F1000404DB4FF00044404237
:1008700064EB0101141E73F1000405DB1C464FF00C
:100880000043524263EB0403994208BF904230BDDB
:10089000064C074D06E0E06840F0010394E80700CD
:1008A00098471034AC42F6D3FFF746FCD04A000814
:1008B000F04A0008202A04DB203A00FA02F1002066
:1008C00070479140C2F1200320FA03F3194390408E
:1008D0007047202A04DB203A21FA02F000217047F9
:1008E00021FA02F3D040C2F1200291400843194698
:1008F0007047202A06DBCB17203A41FA02F043EA80
:10090000E07306E041FA02F3D040C2F120029140C8
:1009100008431946704710B5141E73F1000408DA35
:10092000401C41F1000192185B411A4301D120F0B3
:10093000010010BD2DE9F04D92469B4611B1B1FA70
:1009400081F202E0B0FA80F220329046FFF7B2FF67
:1009500004460F4640EA0A0041EA0B0153465A4654
:10096000084313D0114653EA010019D0C8F14002E0
:100970005046FFF7AEFF05460E46504659464246E2
:10098000FFF798FF084305D0012004E020463946D0
:10099000BDE8F08D0020054346EAE0762C4337435E
:1009A0000A986305E40AA0EB08000022FD0A44EA65
:1009B00047540A3002D500200146E9E70105101925
:1009C0006941DDE9084500196941BDE8F04DA2E73C
:1009D00000BFFEE72DE9F04F85B005460F461646ED
:1009E0009846002440460E99FFF73BFC049041E0F6
:1009F0004FF080413046FFF76CFC4FF08041039090
:100A00003046FFF766FC01902046FFF7A0FC0090FF
:100A10000199FFF726FC83460F99FFF728FC029007
:100A20000399FFF756FC82468AF00040029003F0DB
:100A300045FE4FF07E510390FFF7C1FB83465946B8
:100A40004FF07E50FFF745FC814649460498FFF77A
:100A50000EFC83460E99FFF7B2FB45F8240055F8CB
:100A600024100A48FFF735FC8346FFF779FC27F886
:100A70001400641C2046FFF76AFC83463146FFF7EA
:100A800083FCB5D305B0BDE8F08F000000409C4763
:100A900030B589B005460C4602F074FB01210420F4
:100AA00001F0C6FB0121082001F0E2FB4FF4707059
:100AB000ADF8200018208DF8230003208DF82200C7
:100AC00008A93C4800F0E1FA0121202001F0D0FB08
:100AD0000F20ADF8200014208DF8230003208DF89E
:100AE000220008A9344800F0D0FA0821324800F06A
:100AF000AAFB0421304800F0A6FB01212E4800F09B
:100B0000A2FB02212C4800F09EFB0A20ADF8180041
:100B1000ADF814400020ADF81A00ADF8160005A994
:100B2000264802F0F3FC6020ADF804000120ADF887
:100B300006000020ADF80A000220ADF80C0001A963
:100B40001E4802F08BFC0020ADF80C0001A91B48E8
:100B500002F074FB01A9194802F0C6FB01A917486D
:100B600002F022FC0121154802F02DFB012113485F
:100B700002F03BFB0121114802F019FB08210F484C
:100B800002F0A8FB08210D4802F000FC08210B48E8
:100B900002F05AFC0821094802F09EFC012211468D
:100BA000064802F042FB0121044802F012FB09B0A2
:100BB00030BD0000000C014000140140000800405E
:100BC0001CB50446B4F5C86F04DBA4F5C860094938
:100BD000086001E00748046007480849084B094AD3
:100BE000CDE9001008490948FFF7F4FE01F08CFD3B
:100BF0001CBD0000B80000200000C0400000C8423A
:100C000000401C450000484464180020E40B00200C
:100C10002DE9F04107460E463446256A69480078BA
:100C200020B1012877D0022876D1BEE00020607084
:100C300017B1012F71D178E06348007805286ED292
:100C4000DFE800F0031633465F0008215F4800F03C
:100C5000FAFA4FF448705E49086041F61410FFF745
:100C6000AFFF01205849087000205A4908705AE027
:100C70004FF40041584800F0DBFA68B902205749A8
:100C800008706420564908600846006855490860A5
:100C900002204D49087007E05348007820B9FE2033
:100CA00060800220474908703DE04F48007870B9E5
:100CB0000821464800F0C5FA4A48006832304449E5
:100CC00008600320404908700020FFF779FF2AE000
:100CD0004FF40041404800F0ABFA48B902203F49C8
:100CE000087005203E49086004203749087007E075
:100CF0003D48007820B9FE2060800220314908700C
:100D000011E03948007828B902202E4908700020E7
:100D10002D49087007E044E04FE040E0FFE7002085
:100D20002949087000BF00BF39E02748007810B19A
:100D300004282ED123E00821244800F084FA2888D2
:100D4000B0F5C86F10DA288800EBD0714910204A3E
:100D50001160B5F8008008EBD8714910A8EB41018B
:100D600088B2FFF72DFF06E04FF44870184908607D
:100D70002888FFF725FF0420134908700DE01A4862
:100D8000007828B902200F49087000200E49087029
:100D900003E000200C49087000BF00BF00BF00BF87
:100DA0000CE002200749087008E001206070002074
:100DB000044908700449087000E000BF00BF00202B
:100DC000BDE8F081CD000020CE00002000140140DD
:100DD000C4000020CC000020000C0140BC0000201A
:100DE000C8000020D0000020C000002010B502463E
:100DF0000B460021002400BF04E0505C2044C4B234
:100E0000481CC1B29942F8DBE043C0B210BD704744
:100E100008B50121102001F02BFA4FF40050ADF875
:100E2000000003208DF8020010208DF803006946B1
:100E3000014800F02AF908BD0010014010B5044631
:100E40002146272001F0FAFB10BD10B501F0E8FBA8
:100E500010BD10B504462146272001F011FC10BD3D
:100E600010B501F0FFFB10BD30B5044604254FF46A
:100E7000302000F083F80546042D17D10C48006996
:100E800040F002000A49086108464461006940F0E8
:100E9000400008614FF4302000F070F80546044827
:100EA000006941F6FD71084001490861284630BDDE
:100EB0000020024004200B49C96801F0010109B17A
:100EC00001200EE00749C96801F0040109B10220C0
:100ED00007E00449C96801F0100109B1032000E0EE
:100EE00004207047002002400348006940F0800061
:100EF00001490861704700000020024070B50446B7
:100F00000D460426F00200F039F80646042E11D1F1
:100F10000948006940F00100074908612580F00296
:100F200000F02CF806460448006941F6FE710840BE
:100F300001490861304670BD002002400146088822
:100F4000704730B503460C461546002207E003EB18
:100F50004200FFF7F3FF24F81200501C82B2AA42AD
:100F6000F5DB30BD024803494860034848607047DC
:100F70002301674500200240AB89EFCD00B5024652
:100F80000423FFF797FF034603E0FFF793FF0346B1
:100F9000521E012B01D1002AF7D102B905231846B0
:100FA00000BD00002DE9F05F054689461746B5F102
:100FB000006F04D305EB47001849884203D34FF074
:100FC000FF30BDE8F09FFFF7CDFFA5F1006A4FEAC3
:100FD0009A284FF0006000EB882B5846FFF744FF3B
:100FE0000646042E00D010E000240BE039F814105F
:100FF00005EB4400FFF782FF0646042E00D004E014
:10100000601C84B2BC42F1DB00BFFFF76DFF042E11
:1010100002D04FF0FF30D4E70020D2E700000108F3
:101020000EB50121084601F003F900F01DF84FF458
:101030007A70ADF804004720ADF800000020ADF84C
:10104000020069464FF0804002F060FA01218807F3
:1010500002F0BCF801221146900702F0E6F80121E7
:10106000880702F0B6F80EBD08B51C208DF8000008
:1010700000208DF8010002208DF8020001208DF87B
:101080000300684601F090F808BD2DE9F0410246E2
:1010900000250026002000230024002791F803C02B
:1010A0000CF00F0591F803C00CF0100CBCF1000F10
:1010B00003D091F802C04CEA050591F800C0BCF1DC
:1010C000000F31D0146800202BE04FF0010C0CFA17
:1010D00000F3B1F800C00CEA03069E4220D1830061
:1010E0004FF00F0C0CFA03F7BC4305FA03FC4CEA73
:1010F000040491F803C0BCF1280F06D14FF0010C95
:101100000CFA00FCC2F814C00AE091F803C0BCF16C
:10111000480F05D14FF0010C0CFA00FCC2F810C0CA
:10112000401C0828D1D31460B1F800C0BCF1FF0FF7
:1011300034DD546800202EE000F1080C4FF0010867
:1011400008FA0CF3B1F800C00CEA03069E4221D164
:1011500083004FF00F0C0CFA03F7BC4305FA03FCB5
:101160004CEA040491F803C0BCF1280F05D100F14A
:10117000080C08FA0CF8C2F8148091F803C0BCF10E
:10118000480F07D100F1080C4FF0010808FA0CF8DD
:10119000C2F81080401C0828CED35460BDE8F0810E
:1011A000F0B50A46002300240021002500F0004687
:1011B000B6F1004F02D11D4EF16901E01B4E71687E
:1011C000C0F3034583B200F44016B6F5401F08D1C2
:1011D00021F07061154E766826F07066134F7E60C0
:1011E00012E000F48016B6F5801F06D1032606FA39
:1011F00005F4A14341F0706106E0460D360103FAA3
:1012000006F6B14341F0706122B1460D360103FA92
:1012100006F6314300F00046B6F1004F02D1034E0E
:10122000F16101E0014E7160F0BD0000000001407D
:101230000246002093680B400BB1012000E0002023
:101240007047416170470161704700BFFEE710B50C
:1012500000F002F810BD00004AF6AA20014908601B
:10126000704700000030004010B50F4890F8F900BA
:101270000D4991F8FA10884214D00B4890F8F90003
:1012800028B94FF400510948FFF7DBFF04E04FF4A1
:1012900000510648FFF7D7FF034890F8F9000249CC
:1012A00081F8FA0010BD0000E4000020000C0140AD
:1012B00008B50121042000F0DBFF2720ADF8000075
:1012C00003208DF8020010208DF8030069460A48BB
:1012D000FFF7DBFE01210848FFF7B5FF02210648B2
:1012E000FFF7B1FF04210448FFF7ADFF20210248BA
:1012F000FFF7A9FF08BD00000008014010B53748FE
:10130000007A00B110BD354890F8C80020B101281E
:1013100036D002285DD141E03048D0F8D40000B189
:1013200058E02E4890F8CC002C4991F8D010884213
:1013300025D02A4890F8CC0090B929A003F0DCFA17
:1013400005202649C1F8D400012081F8C8000846CC
:1013500090F8CC0081F8D0000020C1F8E4000EE045
:1013600024A003F0C9FA1D4890F8CC001B4981F86D
:10137000D0000020C1F8D400022081F8C80029E084
:101380001648D0F8D40000B124E001211F48FFF72F
:1013900058FF0020114981F8C8001BE00F48D0F821
:1013A000D40000B116E01AA003F0A6FA00200B4901
:1013B00081F8C80001211548FFF745FF0748C0889C
:1013C00000F596700549C1F8D400012081F8CC00E1
:1013D00000E000BF00BF00BF94E70000E400002071
:1013E000204C6F636B5F30315F5461736B20BFAA19
:1013F000CBF80A00204C6F636B5F30315F54617330
:101400006B20BDABD2AAB9D8CBF80A0000080140C6
:10141000204C6F636B5F30315F5461736B20B9D8C0
:10142000CBF8CDEAB3C90A0010B53648007A0128D6
:1014300000D010BD334890F8C90020B1012833D046
:1014400002285BD13EE02F48D0F8D80000B156E02A
:101450002C4890F8CD1090F8D100814223D0294833
:1014600090F8CD0088B928A003F046FA0521254858
:10147000C0F8D810012180F8C91090F8CD1080F87C
:10148000D1100021C0F8E8100DE024A003F034FAD8
:101490001C4890F8CD1080F8D1100021C0F8D81069
:1014A000022180F8C9102AE01648D0F8D80000B10F
:1014B00025E002211F48FFF7C4FE0021114880F8F3
:1014C000C9101CE00F48D0F8D80000B117E01AA0EE
:1014D00003F012FA00210B4880F8C91002211548C8
:1014E000FFF7B1FE0748C08800F596700549C1F8BE
:1014F000D8000121034880F8CD1000E000BF00BFF4
:1015000000BF96E7E4000020204C6F636B5F303231
:101510005F5461736B20BFAACBF80A00204C6F6345
:101520006B5F30325F5461736B20BDABD2AAB9D808
:10153000CBF80A0000080140204C6F636B5F30322B
:101540005F5461736B20B9D8CBF8CDEAB3C90A00F8
:1015500010B53648007A022800D010BD334890F804
:10156000CA0020B1012833D002285BD13EE02F48C9
:10157000D0F8DC0000B156E02C4890F8CE1090F87E
:10158000D200814223D0294890F8CE0088B928A003
:1015900003F0B2F905212548C0F8DC10012180F8DC
:1015A000CA1090F8CE1080F8D2100021C0F8EC10CC
:1015B0000DE024A003F0A0F91C4890F8CE1080F8AC
:1015C000D2100021C0F8DC10022180F8CA102AE0F5
:1015D0001648D0F8DC0000B125E004211F48FFF7D1
:1015E00030FE0021114880F8CA101CE00F48D0F8E6
:1015F000DC0000B117E01AA003F07EF900210B48CF
:1016000080F8CA1004211548FFF71DFE0748C0885E
:1016100000F596700549C1F8DC000121034880F807
:10162000CE1000E000BF00BF00BF96E7E40000203E
:10163000204C6F636B5F30335F5461736B20BFAAC4
:10164000CBF80A00204C6F636B5F30335F546173DB
:101650006B20BDABD2AAB9D8CBF80A000008014074
:10166000204C6F636B5F30335F5461736B20B9D86C
:10167000CBF8CDEAB3C90A0010B53648007A032882
:1016800000D010BD334890F8CB0020B1012833D0F2
:1016900002285AD13EE02F48D0F8E00000B155E0D2
:1016A0002C4890F8CF1090F8D300814223D02948DD
:1016B00090F8CF0088B928A003F01EF9052125482D
:1016C000C0F8E010012180F8CB1090F8CF1080F81E
:1016D000D3100021C0F8F0100DE024A003F00CF9A5
:1016E0001C4890F8CF1080F8D3100021C0F8E0100B
:1016F000022180F8CB1029E01648D0F8E00000B1B4
:1017000024E00021134880F8CB1020211D48FFF76A
:1017100098FD1BE00F48D0F8E00000B116E01AA0D9
:1017200003F0EAF820211748FFF78DFD0021094852
:1017300080F8CB10C08800F596700649C1F8E0002B
:101740000121044880F8CF1000E000BF00BF00BFB7
:1017500097E70000E4000020204C6F636B5F30349B
:101760005F5461736B20BFAACBF80A00204C6F63F3
:101770006B5F30345F5461736B20BDABD2AAB9D8B4
:10178000CBF80A0000080140204C6F636B5F3034D7
:101790005F5461736B20B9D8CBF8CDEAB3C90A00A6
:1017A00010B501F0C7FAFFF75FFD10BD00BFFEE7FF
:1017B00010B56B4890F8940030B104283ED007284B
:1017C00076D0082875D1B6E06548D0F8840000B11D
:1017D000C3E00420624981F89400084690F89C0018
:1017E00098B960A003F088F84FF4D2705C49C1F852
:1017F000A80001216248FFF726FD2620FFF71EFB07
:101800000320574981F8980011E05EA003F074F8B6
:1018100001215B48FFF715FD2620FFF70FFB042091
:101820004F4981F898004FF4FA70C1F8A8004C486D
:1018300090F89C004A4981F8A0008EE0484890F852
:101840009C00474991F8A010884209D0FFF7FDFAA3
:101850000020434981F894000A20C1F884007CE00C
:101860003F4890F89800032804D0042810D0052899
:1018700059D136E03A48D0F8A80040B946A003F064
:101880003BF8FFF7E2FA0820354981F894004FE071
:1018900001214748FFF7CCFC01280BD145A003F0FC
:1018A0002BF8FFF7D2FA08202D4981F8940017E0B1
:1018B00040E04DE02A48D0F8A80088B944A003F0E1
:1018C0001BF801212E48FFF7BCFC0320FFF7B6FAF6
:1018D0004FF416702249C1F8A800052081F898003D
:1018E00026E001213248FFF7A3FC012809D13DA0E1
:1018F00003F002F8FFF7A9FA0820194981F89400CB
:1019000010E01748D0F8A80060B93FA002F0F4FF3B
:1019100064201349C1F8A800FFF797FA082010497E
:1019200081F8940004E008200D4981F8940000BF7C
:1019300000BF12E011E00A4890F89C00084991F8B5
:10194000A010884203D00020054981F8940004E0EB
:101950000820034981F8940000BF00BF10BD0000BB
:10196000E4000020204D6F746F5F30315F5461736D
:101970006B20D5FDD7AAA3ACBFAAC3C50A0000003F
:1019800000140140204D6F746F5F30315F546173FC
:101990006B20B9D8C3C50A00204D6F746F5F30311A
:1019A0005F5461736B20D4DDCDA3B5E7BBFA0A00A9
:1019B000000C0140204D6F746F5F30315F546173D4
:1019C0006B20C1E3B5E3D4DDCDA3B5E7BBFA0A00D4
:1019D000204D6F746F5F30315F5461736B20BCF5C5
:1019E000CBD90A00204D6F746F5F30315F54617343
:1019F0006B20BCF5CBD92D2DC1E3B5E3D4DDCDA350
:101A0000B5E7BBFA0A000000204D6F746F5F3031FC
:101A10005F5461736B20B3ACCAB1D4DDCDA3B5E71D
:101A2000BBFA0A0010B5694890F8950030B1042857
:101A30003CD0072873D0082872D1B3E06348D0F8AF
:101A4000880000B1BFE00421604880F8951090F84C
:101A50009D0098B95EA002F04FFF4FF4D2715B4831
:101A6000C0F8AC1002216148FFF7EDFB2620FFF71C
:101A7000F0F90321554880F8991011E05CA002F0BC
:101A80003BFF02215948FFF7DCFB2620FFF7E1F975
:101A900004214E4880F899104FF4E171C0F8AC1061
:101AA0004A4890F89D1080F8A1108CE0474890F8C3
:101AB0009D1090F8A100814209D0FFF7D1F90021D3
:101AC000424880F895100A21C0F888107BE03F4812
:101AD00090F89900032804D0042810D0052859D183
:101AE00036E03A48D0F8AC0040B946A002F004FF16
:101AF000FFF7B6F90821354880F895104FE002212C
:101B00004648FFF795FB01280BD145A002F0F4FEF3
:101B1000FFF7A6F908212D4880F8951017E040E05E
:101B20004CE02A48D0F8AC0088B944A002F0E4FEAA
:101B300002212E48FFF785FB0320FFF78AF94FF4B7
:101B4000C8712248C0F8AC10052180F8991026E031
:101B500002213248FFF76CFB012809D13CA002F0BA
:101B6000CBFEFFF77DF90821184880F8951010E0AA
:101B70001648D0F8AC0060B93EA002F0BDFE64216A
:101B80001248C0F8AC10FFF76BF908210F4880F835
:101B9000951004E008210D4880F8951000BF00BFA3
:101BA00011E010E0094890F89D1090F8A1008142E2
:101BB00003D00021054880F8951004E0082103486F
:101BC00080F8951000BF00BF10BD0000E4000020A9
:101BD000204D6F746F5F30325F5461736B20D5FDA1
:101BE000D7AAA3ACBFAAC3C50A00000000140140D5
:101BF000204D6F746F5F30325F5461736B20B9D8C2
:101C0000C3C50A00204D6F746F5F30325F5461733B
:101C10006B20D4DDCDA3B5E7BBFA0A00000C014070
:101C2000204D6F746F5F30325F5461736B20C1E37E
:101C3000B5E3D4DDCDA3B5E7BBFA0A00204D6F7440
:101C40006F5F30325F5461736B20BCF5CBD90A00F3
:101C5000204D6F746F5F30325F5461736B20BCF541
:101C6000CBD92D2DC1E3B5E3D4DDCDA3B5E7BBFAC8
:101C70000A000000204D6F746F5F30325F54617353
:101C80006B20B3ACCAB1D4DDCDA3B5E7BBFA0A0073
:101C900010B5964890F8960030B1042851D0072826
:101CA0007BD008287AD10DE19048D0F88C0000B1A3
:101CB00019E104218D4880F8961090F89E00A0B993
:101CC0008BA002F019FE8948C088C8308749C1F846
:101CD000B00004218D48FFF7B6FA262000F052FB31
:101CE0000321824880F89A1025E089A002F004FEC2
:101CF0004FF480518B48FFF79BFA58B98AA002F045
:101D0000FBFD0821794880F8961090F89E1080F825
:101D1000A210E8E004217D48FFF793FA262000F0A6
:101D200031FB0421714880F89A10C08800F57A7060
:101D30006E49C1F8B0006D4890F89E1080F8A2106E
:101D4000D1E06A4890F89E1090F8A200814209D034
:101D500000F01FFB0021654880F896100A21C0F8AA
:101D60008C10C0E0614890F89A00032806D004283F
:101D70004DD0052878D0062875D127E0082169487C
:101D8000FFF756FA58B96EA002F0B6FD00F001FB5D
:101D90000821564880F8961017E08EE09EE05348E0
:101DA000D0F8B00088B96DA002F0A6FD0421574814
:101DB000FFF749FA262000F0E5FA40F2A4614B480B
:101DC000C0F8B010062180F89A1074E00821554838
:101DD000FFF72EFA48B969A002F08EFD00F0D9FA9B
:101DE0000821424880F8961010E04048D0F8B00032
:101DF00060B969A002F080FD64213C48C0F8B010D1
:101E000000F0C7FA0821394880F8961053E04FF4E3
:101E100080514448FFF70CFA68B966A002F06CFDE7
:101E2000C8213248C0F88C1000F0B3FA07212F48BF
:101E300080F8961015E02D48D0F8B00088B964A05D
:101E400002F05AFD04213148FFF7FBF90B2000F0A6
:101E500099FA4FF4FA612548C0F8B010052180F8CE
:101E60009A1028E000E021E04FF480512D48FFF760
:101E7000DFF948B95BA002F03FFD00F08AFA0821C3
:101E80001A4880F8961010E01848D0F8B00060B9F1
:101E90005DA002F031FD64211448C0F8B01000F0DC
:101EA00078FA0821114880F8961004E008210F48BC
:101EB00080F8961000BF00BF15E008210B4880F89D
:101EC000961010E0094890F89E1090F8A200814208
:101ED00003D00021054880F8961004E0082103484B
:101EE00080F8961000BF00BF10BD0000E400002085
:101EF000204D6F746F5F30335F5461736B20D5FD7D
:101F0000D7AAA3ACC9CFC9FD0A0000000014014044
:101F1000204D6F746F5F30335F5461736B20CFC29D
:101F2000BDB50A00000C0140204D6F746F5F303367
:101F30005F5461736B20D2D1BEADD7EEB5CD0A0030
:101F4000204D6F746F5F30335F5461736B20757019
:101F5000C1E3B5E3CDA3D6B90A000000204D6F74EC
:101F60006F5F30335F5461736B207570202066752E
:101F70006C6C207370656564200A0000204D6F74DE
:101F80006F5F30335F5461736B20757020C1E3B5B0
:101F9000E3CDA3D6B90A0000204D6F746F5F3033D4
:101FA0005F5461736B20757020B3ACCAB1CDCBB3F5
:101FB000F6200A00204D6F746F5F30335F546173F9
:101FC0006B20646F776EC1E3B5E3CDA3D6B90A0089
:101FD000204D6F746F5F30335F5461736B20BCF5BD
:101FE000CBD90A00204D6F746F5F30335F5461733B
:101FF0006B20BCF5CBD92D2DC1E3B5E3D4DDCDA34A
:10200000B5E7BBFA0A000000204D6F746F5F3033F4
:102010005F5461736B20BCF5CBD92D2DB3ACCAB125
:10202000D4DDCDA3B5E7BBFA0A00000010B53848EF
:1020300090F8970020B1042830D0082865D163E0DB
:10204000344890F8250088B933A002F055FC0120EF
:10205000304981F825002E4800684860002048700B
:102060000846046A42690020904707E02848006853
:1020700028498860084642690020904725484078F2
:1020800001280AD12BA002F037FC0821204880F853
:10209000971000201F4981F8250037E01D4890F86F
:1020A0002500C8B91A48B0F8F61028A002F024FCA0
:1020B0000120184981F82500154800684860002073
:1020C00048700846046A1248B0F8F60020800846B6
:1020D00042690120904707E00D4800680D4988607B
:1020E00008464269012090470A48407801280AD1F1
:1020F00010A002F001FC0821054880F8971000208C
:10210000044981F8250001E000E000BF00BF10BDD8
:10211000E40000205C020020204D6F746F5F3034BB
:102120005F5461736B20D7AAB5DAD2BBB8F6B1EDB4
:102130000A000000204D6F746F5F30345F5461738C
:102140006B206246696E6973680A0000204D6F74E7
:102150006F5F30345F5461736B20D7AAB6AF202510
:1021600064092F6E000000007047000008B50121CF
:10217000082000F07DF84FF40040ADF80000032087
:102180008DF8020048208DF8030069460148FEF7EB
:102190007CFF08BD000C0140704710B54FF4A060F3
:1021A00000F03AF810BD000070B5002100230F22A6
:1021B000C47804B3154C246804F4E064C4F5E06406
:1021C000210AC1F10403CA40447804FA03F1847877
:1021D0001440214309010E4C0678A155047804F0FF
:1021E0001F050124AC4005786D11AD0005F1E02517
:1021F000C5F8004109E0047804F01F050124AC4053
:10220000044D0678761145F8264070BD0CED00E0CF
:1022100000E400E080E100E002490143024A11606D
:10222000704700000000FA050CED00E07047000068
:1022300029B1064AD2690243044BDA6104E0034A39
:10224000D2698243014BDA617047000000100240FE
:1022500029B1064A12690243044B1A6104E0034A99
:1022600012698243014B1A6170470000001002405E
:1022700029B1064A92690243044B9A6104E0034A79
:1022800092698243014B9A6170470000001002403E
:1022900029B1064AD2680243044BDA6004E0034ADB
:1022A000D2688243014BDA607047000000100240A0
:1022B00030B500210022002400232D4D6D6805F06B
:1022C0000C0121B1042905D0082923D105E0294DAD
:1022D000056022E0274D05601FE0254D6D6805F47F
:1022E0007012234D6D6805F48034022505EB92428F
:1022F0001CB9214D554305600BE01D4D6D6805F47B
:1023000000351DB11C4D5543056002E0194D554384
:10231000056002E0174D056000BF00BF144D6D68F9
:1023200005F0F0010909154D6B5C0568DD4045605D
:102330000F4D6D6805F4E061090A104D6B5C45684E
:10234000DD4085600A4D6D6805F46051C90A0B4D8A
:102350006B5C4568DD40C560054D6D6805F4404126
:10236000890B074D6B5CC568B5FBF3F5056130BDA6
:102370000010024000127A0000093D0020000020F9
:102380003000002010B504462146272000F09AF9BD
:1023900010BD10B500F088F910BD704710B5194890
:1023A000807E072827D2DFE800F0042610171E26BB
:1023B0002700144890F85100012805D1842000F02E
:1023C00025F806200F4988761AE0FF2000F01EF855
:1023D00006200C49887613E0FF2000F017F806204D
:1023E000084988760CE00848007800F057F8062085
:1023F0000449887604E000BF06200249887600BFC1
:1024000000BF10BDE4000020AC00002030B59BB040
:10241000054638210DA8FDF7AEFEFF2D08D11C485A
:1024200000788DF836001B4800788DF8370014E0EE
:102430001948016801914168029180680390112058
:102440008DF83600002406E001A8015DE01C0DAA0D
:102450001154601CC4B2302CF6DBAA208DF8340075
:102460008DF8355033210DA8FEF7C0FC8DF86700BC
:1024700055208DF86800002405E00DA9085D01F0E5
:102480002FFC601CC4B2352CF7DB1BB030BD000044
:10249000AE000020AD0000200901002030B59BB047
:1024A000054638210DA8FDF766FEFF208DF83500A2
:1024B00002208DF836008DF83750AA208DF83400B0
:1024C000002406E001A8015D201D0DAA1154601C26
:1024D000C4B22F2CF6DB33210DA8FEF787FC8DF854
:1024E000670055208DF86800002405E00DA9085DFF
:1024F00001F0F6FB601CC4B2352CF7DB1BB030BD1D
:1025000008B501210920FFF7B3FE01210848FEF7B5
:1025100047FE41F20B00ADF8000003208DF80200E9
:1025200048208DF8030069460248FEF7AEFD08BD5D
:1025300000023000000C014010B500F001F810BDA1
:102540000CB50020019000903348006840F48030C2
:102550003149086000BF3048006800F40030009046
:102560000198401C0190009818B90198B0F5A06F2F
:10257000F1D12948006800F4003010B1012000902A
:1025800001E0002000900098012843D12348006812
:1025900040F01000214908600846006820F0030060
:1025A00008600846006840F0020008601A48406869
:1025B000194948600846406848600846406840F449
:1025C000806048600846406820F47C1048600846F7
:1025D000406840F4E81048600846006840F08070A9
:1025E000086000BF0C48006800F000700028F9D0B7
:1025F0000948406820F003000749486008464068E1
:1026000040F00200486000BF0348406800F00C0042
:102610000828F9D10CBD0000001002400020024043
:1026200010B50020034908700021034800F063FF43
:1026300010BD0000BD0000200008004070B5044639
:102640000D460120054908702146054800F051FF5C
:102650002946034800F04FFF70BD0000BD00002078
:102660000008004010B5002003490870002103480D
:1026700000F043FF10BD0000BE0000200008004035
:1026800070B504460D4601200549087021460548ED
:1026900000F02FFF2946034800F02FFF70BD000017
:1026A000BE0000200008004010B50020034908705B
:1026B0000021034800F023FF10BD0000BF000020F0
:1026C0000008004070B504460D4601200549087019
:1026D0002146054800F00DFF2946034800F00FFF92
:1026E00070BD0000BF0000200008004010B50020B1
:1026F000034908700021034800F003FF10BD0000EB
:10270000C000002000080040012001490870704707
:10271000C000002010B501200C4981F824000020E1
:1027200081F82500022002F0B1F808490862084942
:1027300006484161052005490882012008700020F3
:1027400048608860C8604870488010BD5C02002006
:10275000110C000870B5E3490868FEF7EFFBE24989
:10276000C8831421E0483D30FDF705FDDE48C08BED
:102770004FF6FF71884207D0DB48C08B062803DA8A
:10278000D948C08B002869D10120D749C8830024CB
:102790000DE0D44901220868D3491E31FEF702FC3E
:1027A00000B906E0142001F063FF601CC4B2082CDD
:1027B000EFDB00BF00241AE0002104EB4402CA480A
:1027C0002530815404EB440210444170012104EB94
:1027D0004402C54825301044817034B9022104EB0D
:1027E0004402C148253010444170601CC4B2042C1E
:1027F000E2DB002422E004EB4401BB48253008441E
:10280000817804EB4402B8483D301044817004EBF9
:102810004401B54825300844417804EB4402B248ED
:102820003D301044417004EB4401AF482530415C19
:1028300004EB440218308154601CC4B2042CDADB6F
:102840000021A948A0F849100146C98BA54A52F8B1
:1028500021000A22A4493D31FEF7A4FBA249C98BFD
:10286000A04A52F821000A229F493D31FEF769FB38
:10287000002455E09C483D3000EB440000884FF6B2
:10288000FF7188424AD100251AE0002105EB45027C
:1028900095482530815405EB4502104441700121D3
:1028A00005EB4502904825301044817034B902216F
:1028B00004EB44028C48253010444170681CC5B2BA
:1028C000042DE2DB002422E004EB4401864825309D
:1028D0000844817804EB440283483D301044817001
:1028E00004EB4401804825300844417804EB44025D
:1028F0007D483D301044417004EB44017A48253056
:10290000415C04EB440218308154601CC4B2042CB6
:10291000DADB00217448A0F8491003E0601CC4B25F
:10292000062CA7DB00BF002419E004EB44016E482D
:102930003D300844817804EB44026B482530104454
:10294000817004EB440168483D300844417804EB51
:1029500044026548253010444170601CC4B2042C08
:10296000E3DB614890F849005F4981F8F9000846C7
:1029700090F8F90038B1084690F8F900012802D023
:10298000002081F8F900002429E004EB44015648B6
:1029900025300844417854489C30015504EB4401EB
:1029A0007738084481785048A4300155005D00EB29
:1029B00040004E4901EB800041684B48A83040F888
:1029C0002410001F005D00EB4000484901EB80002F
:1029D00081684548B83040F82410601CC4B2042C0B
:1029E000D3DBFFF797FE00203F49087548758875CF
:1029F0000861C8800884888181F82400C1F88000BB
:102A000081F8FB0081F8FC00487288734FF4C870AD
:102A10004881062088760020C87681F85100FF2082
:102A200081F8FA00002081F8F40081F8F800A1F89C
:102A3000F600FF200872002417E000212A48D03059
:102A400001550121001F01552948FEF7FCFB022119
:102A50002748FEF7F8FB04212548FEF7F4FB202168
:102A60002348FEF7F0FB601CC4B2042CE5DB002415
:102A700005E000211C485A300155601CC4B2042CEA
:102A8000F7DB002406E000211748603040F82410EE
:102A9000601CC4B2042CF6DB00240EE000211248B6
:102AA000843040F8241010300155001D01553221AA
:102AB0003C3040F82410601CC4B2042CEEDB012131
:102AC000094880F89D10002180F89510C0F8BC10CE
:102AD0000120054981F89C00002081F89400C1F88C
:102AE000B80070BD38000020E40000205000002035
:102AF0000008014010B567480068401C654908603F
:102B000065490868411C644A1160C82804D900203E
:102B100011460860FEF79BFB5E4890F8FB0080B111
:102B20005C4890F8FB00401E5A4981F8FB000846BB
:102B300090F8FB0028B95948008840F400405749F4
:102B400008805448408920B152484089401E51496C
:102B5000488153490888411C514A1180B0F57A7F59
:102B600010DB0020114608804A48008C50B14948CB
:102B7000008C401E474908840846008C10B901208B
:102B800081F8240043488089052802D1002041496A
:102B900088814048006920B13E480069401E3D4997
:102BA00008613C48408C20B13A48408C401E39496D
:102BB00048843848D0F8800030B13648D0F88000DA
:102BC000401E3449C1F8800000244DE03148843073
:102BD00050F8240040B12F48843050F82400401EA3
:102BE0002C49843141F824002A48A83050F82400A8
:102BF00030B12848A83050F82410491E40F824105D
:102C00002448B83050F8240030B12248B83050F889
:102C10002410491E40F824101E48D43050F82400D7
:102C200040B11C48D43050F82400401E1949D4311A
:102C300041F824001748E43050F8240030B115481A
:102C4000E43050F82410491E40F824101148603038
:102C500050F8240030B10F48603050F82410491E5D
:102C600040F82410601CC4B2042CAFDB0D4800688F
:102C700040B100200B4908604FF400510A48FEF7AC
:102C8000E0FA06E001200749086041030648FEF724
:102C9000DAFA10BDE400002000000020B20000209D
:102CA000040000200800002000100140042808D182
:102CB0004FF0E021096941F004014FF0E022116179
:102CC00007E04FF0E021096921F004014FF0E02214
:102CD0001161704710B51348006840F001001149B8
:102CE000086008464068104908400E494860084698
:102CF00000680E4908400B4908600846006820F447
:102D0000802008600846406820F4FE0048604FF4C8
:102D10001F008860FFF710FC4FF000600449086056
:102D200010BD0000001002400000FFF8FFFFF6FE9B
:102D300008ED00E010B58D48807B082871D2DFE8EF
:102D400000F004204371A0C1EBEF8848408978B9B6
:102D50000120864988730121844880F89E10002153
:102D600080F89610C0F8C0104FF448707F49488131
:102D7000FEF7C4FAFEF758FBFEF7EAFBFEF77CFC11
:102D8000F1E07A48408920B1784890F89600082808
:102D900017D10120754981F89C00002081F894002A
:102DA000C1F8B8000121714880F89D10002180F819
:102DB0009510C0F8BC1002206C4988734FF47A60FB
:102DC0004881FEF765FFCEE06848408970B16748EA
:102DD00090F8940008281DD1644890F895000828C0
:102DE00018D1624890F89600082813D103205F4953
:102DF00088730846B0F8F60020B900215B4880F8D7
:102E0000971003E00421594880F8971042F210709F
:102E100056494881FEF73CFFFEF7CAFCFEF702FE6A
:102E2000A1E09BE0514890F89700082802D04F4855
:102E3000408918BB06204D498873084690F8F80071
:102E4000012814D1002081F89C0081F89400C1F879
:102E5000B8000021454880F89D1080F89510C0F812
:102E6000BC100420414988730220488106E00020FC
:102E70003E4981F8F800488106208873FFF7D6F8AC
:102E800071E03A48408948B1384890F894000828E1
:102E900013D1364890F8950008280ED10520334903
:102EA00088730021314880F89E1080F89610C0F891
:102EB000C01041F270702D494881FEF779FCFEF791
:102EC000B1FD50E02948408920B1284890F896008B
:102ED00008281AD1254890F89620418924A001F0AD
:102EE0000BFD00202149488106208873002081F8CD
:102EF000F8002C49087003202B4908701B48807E7D
:102F0000062802D1022019498876FEF751FCFEF707
:102F100089FDFEF7BDFE26E01448408908B122E095
:102F20001DE0FFF73BFA00F043FBFEF7E7F9FEF781
:102F30007BFAFEF70DFBFEF79FFBFEF739FCFEF771
:102F400071FDFEF7A5FEFFF771F8084890F8F8004C
:102F5000012802D100200549887304E000BF002049
:102F60000249887300BF00BF10BD0000E4000020CC
:102F700020494E49545F53544154455F5550207584
:102F80003136496E69745761697454696D65256499
:102F9000202C204D6F746F5F537461746525640A33
:102FA00000000000AD000020AE00002010B501219F
:102FB000880700F029F940B10121880700F006F9DF
:102FC0000248C088401C0149C88010BDE4000020B0
:102FD00010B50121064800F017F938B10121044865
:102FE00000F0F4F80021024800F0F3F810BD0000F2
:102FF0000004004070B500240121584800F004F995
:10300000002872D00121554800F0E0F854480078BB
:103010000028F6D05348007830B1012830D002287B
:103020003BD003282BD191E04F48504A126830F82A
:1030300012104A4800F05DFA4B484C4A126830F8CA
:10304000125005EBD5704110444800F05AFA474839
:103050000068401C45490860002045490870434805
:103060000068B0F5487F01DB012008703F48006828
:1030700040490968884202DB01203A4908706BE048
:103080003D480068002802DC0220364908703A48B2
:103090000068401E384908605EE034480068401E01
:1030A0003249086035480078A0BB354800780228CE
:1030B00031D12F480078012818D1084600684FF414
:1030C00048714843642190FBF1F4274830F814100C
:1030D000224800F00EFA244830F8145005EBD57061
:1030E00041101E4800F00DFA28E036E01E481F4A45
:1030F000126830F81210194800F0FBF91A481B4A00
:10310000126830F8125005EBD5704110134800F0EA
:10311000F8F913E0FFE71448144A126830F8121067
:103120000E4800F0E6F91048104A126830F81250C4
:1031300005EBD5704110094800F0E3F90B48006831
:10314000012802DC03200749087005E0FFF7CEFAEA
:1031500000200449087000BF00BF70BD0008004097
:10316000C0000020BC00002064180020C80000201F
:10317000CC000020C4000020B8000020CD000020BA
:10318000CE00002008B54FF4E060FFF745F81E20A0
:103190008DF8000000208DF8010003208DF802005A
:1031A00001208DF803006846FEF7FEFF08BD21B13F
:1031B000028842F08002028004E002884FF67F73AA
:1031C0001A4002807047CA4302827047CA43028293
:1031D000704721B1028842F00102028004E00288B7
:1031E0004FF6FE731A400280704731B1B0F84420A8
:1031F00042F40042A0F8442005E0B0F84420C2F3B5
:103200000E02A0F84420704730B50246002000238B
:103210000024158A05EA0103958905EA010413B122
:103220000CB1012000E0002030BD1AB183890B43AE
:10323000838102E083898B438381704770B50024CA
:1032400000220023058C4FF6FE7635400584028C63
:103250008388048B4FF68F752C40B51E2C400D884B
:103260002C43751E2A400D892A434D882A43144D4C
:10327000A8420BD0134DA84208D0134DA84205D048
:10328000124DA84202D0124DA84213D14FF6F77545
:103290002A404D892A434FF6FB752A408D882A43E0
:1032A0004FF6FF652B404FF6FF552B408D892B4382
:1032B000CD892B4383800483CD888586028470BDAD
:1032C000002C014000340140004001400044014016
:1032D000004801400A460021018B4FF6F773194060
:1032E000114301837047000070B5002400220023C1
:1032F000058C4FF6EF7635400584028C8388048B6D
:1033000048F6FF752C404FF6FF452C400D884FF6D0
:10331000FF7606EA05252C434FF6DF752A400D8916
:1033200006EA05152A434D8806EA05152A43154D78
:10333000A84202D0144DA8421DD14FF67F752A40F5
:103340004D894FF6FF7606EA05152A434FF6BF75FD
:103350002A408D8806EA05152A434FF6FF352B4093
:103360004FF2FF752B408D8906EA85052B43CD89E9
:1033700006EA85052B4383800483CD880587028474
:1033800070BD0000002C0140003401400A460021BD
:10339000018B4FF2FF7319404FF6FF7303EA0223CC
:1033A000194301837047000070B5002400220023F8
:1033B000058C4FF6FF6635400584028C8388848B2C
:1033C0004FF68F752C404FF6FC752C400D882C4322
:1033D0004FF6FF552A400D894FF6FF7606EA052580
:1033E0002A434D8806EA05252A43154DA84202D0F6
:1033F000144DA8421DD14FF2FF752A404D894FF65A
:10340000FF7606EA05252A434FF6FF352A408D88C8
:1034100006EA05252A434EF6FF752B404DF6FF754B
:103420002B408D8906EA05152B43CD8906EA051543
:103430002B4383808483CD888587028470BD000000
:10344000002C0140003401400A460021818B4FF6D8
:10345000F7731940114381837047000070B5002253
:1034600000230024058C4EF6FF7635400584038C3E
:103470008488828B48F6FF752A404FF6FF452A4024
:103480000D884FF6FF7606EA05252A434DF6FF75AF
:103490002B400D8906EA05352B434D8806EA053594
:1034A0002B430B4DA84202D00A4DA84208D14BF63F
:1034B000FF752C408D894FF6FF7606EA85152C4363
:1034C00084808283CD88A0F84050038470BD0000C2
:1034D000002C0140003401400A460021818B4FF24C
:1034E000FF7319404FF6FF7303EA022319438183E8
:1034F0007047818570478186704701877047818753
:103500007047A0F8401070478184704700220288FD
:103510001D4B98420ED01D4B98420BD0B0F1804FFE
:1035200008D01B4B984205D01A4B984202D01A4B38
:10353000984204D14FF68F731A404B881A43174BA9
:10354000984207D0164B984204D04FF6FF431A40DA
:10355000CB881A4302808B8883850B8803850A4BAE
:1035600098420BD0094B984208D00E4B984205D098
:103570000D4B984202D00D4B984201D10B7A038635
:103580000123838270470000002C01400034014079
:103590000004004000080040000C00400010004003
:1035A0000014004000400140004401400048014038
:1035B00010B50548008800F4004020B100F0D6F9AD
:1035C00000200149088010BDB200002010B540F273
:1035D0002551134800F003F908B3114800F0BAF977
:1035E000C4B21048008800F40040C0B90D480088FB
:1035F000B0F5C87F0DDA0C48C08814300A4981F84C
:10360000FB0008490888411C064A118007490C54F0
:1036100005E00448008840F400400249088010BDDD
:1036200000380140B2000020E400002084020020A5
:1036300010B540F22551164800F0D1F8F8B1144801
:1036400000F088F9C4B21348008800F40040B0B913
:1036500010480088B0F5C87F12DA00210E48FFF745
:1036600053FF0C48008818B901210B48FFF7B1FD42
:1036700008490888411C074A118008490C5405E094
:103680000448008840F400400249088010BD000052
:1036900000440040B400002000080040A4050020C1
:1036A00010B540F22551164800F099F8F8B11448C9
:1036B00000F050F9C4B21348008800F40040B0B9DB
:1036C00010480088B0F5C87F12DA00210E48FFF7D5
:1036D0001BFF0C48008818B901210B48FFF779FD42
:1036E00008490888411C074A118008490C5405E024
:1036F0000448008840F400400249088010BD0000E2
:1037000000480040B600002000080040C408002027
:1037100021B1828942F40052828104E082894DF60F
:10372000FF731A408281704710B5044620488442D6
:1037300009D101218803FEF7ABFD00214FF4804041
:10374000FEF7A6FD32E01B48844209D1012148045E
:10375000FEF77EFD00214FF40030FEF779FD25E0F5
:103760001548844209D101218804FEF771FD00212A
:103770004FF48020FEF76CFD18E01048844209D118
:103780000121C804FEF764FD00214FF40020FEF77C
:103790005FFD0BE00A48844208D101210805FEF7CD
:1037A00057FD00214FF48010FEF752FD10BD0000C0
:1037B000003801400044004000480040004C0040F8
:1037C0000050004002460020B1F5007F00D100BF4C
:1037D00013880B400BB1012000E00020704770B54A
:1037E0000246002400230025002040F66A16B1425C
:1037F00000D100BFC1F3421501F01F03012606FAF4
:1038000003F3012D02D19689334006E0022D02D147
:10381000168A334001E0968A33400C12012606FADC
:1038200004F41688344013B10CB1012000E00020EC
:1038300070BDF0B50346002400260025002040F6A8
:103840006A17B94200D100BF1846C1F3421401F013
:103850001F06012707FA06F5012C01D10C3004E000
:10386000022C01D1103000E014301AB107682F4348
:10387000076002E00768AF430760F0BD2DE9F0473D
:1038800086B005460E460024A24600BFA14600278A
:10389000B08900B100BF2F462C8A4CF6FF7004405F
:1038A000F08804432C82AC894EF6F3100440B088B3
:1038B00031890843718908430443AC81AC8A4FF6CF
:1038C000FF400440B0890443AC8201A8FEF7F0FC3D
:1038D0001F48874202D1DDF810A001E0DDF80CA0FE
:1038E000A88900F4004040B10AEBCA0000EB0A10BE
:1038F00031684900B0FBF1F807E00AEBCA0000EBC1
:103900000A1031688900B0FBF1F86420B8FBF0F0D0
:1039100004012009642101FB1089A88900F40040FA
:1039200040B1322000EBC900B0FBF1F000F007001D
:10393000044308E0322000EB09106421B0FBF1F0F1
:1039400000F00F0004432C8106B0BDE8F0870000B2
:103950000038014001468888C0F308007047C1F371
:1039600008028280704700BFFEE700002DE9FC419D
:1039700000270020009001908046AA208DF80000CA
:103980006946C048FCF702FC044614B9781EBDE83D
:10399000FC81607A552802D04FF0FF30F7E7002510
:1039A00005E0605D404400F0FF08681CC5B20A2DC8
:1039B000F7DBB8F1540F02D04FF0FF30E7E766783D
:1039C000B01E0A287AD2DFE800F00C057A879479D5
:1039D000A8B7BDC30120AC4981F85100002088760A
:1039E0004DE1A078FF2832D100252DE0A17905EB2B
:1039F0004502A548253010444170E17905EB4502A8
:103A0000A148253010448170A1799F489C304155D0
:103A1000E17908304155405D00EB40009B4901EBE6
:103A2000800041689848A83040F82510001F405D8C
:103A300000EB4000954901EB800081689248B83066
:103A400040F82510681CC5B2042DCFDB30E0A17909
:103A5000A07800EB40028C48253010444170E17999
:103A6000A07800EB40028848253010448170A1798D
:103A7000A27885489C308154E179A278083081543D
:103A8000A178475C07EB4700804901EB8000416863
:103A9000A2787D48A83040F8221007EB47007B4908
:103AA00001EB80008168A2787748B83040F8221096
:103AB0007548C0881E3074490884E0E0D1E0A078E1
:103AC0000A2808DC0120704988750220087500204A
:103AD0004875A0780883D2E0A0780A2808DC012085
:103AE000694988750320087500204875A078088307
:103AF000C5E0A078FF280AD1002505E06179624879
:103B0000CC304155681CC5B2042DF7DB04E0617967
:103B1000A2785D48CC308154B1E0A07810B1A07893
:103B2000012803D1A078584981F8F9005648C08887
:103B30001E3055490884A2E00120534988750020B1
:103B400008759CE00020504988750520087596E0AE
:103B5000A078032877DC01204B4981F8F800A07891
:103B60000872A07818B90020A1F8F60041E0A0780A
:103B7000454991F8F41088420BDDA078444931F8AA
:103B80001000414991F8F410414A32F81110401ADE
:103B90000CE03D4890F8F4003D4931F81000C0F5C4
:103BA000C850A1783A4A32F8111008443649A1F8B1
:103BB000F600084690F8F40088B9A078032806D0EB
:103BC0000846B0F8F6003C30A1F8F60011E02E48A7
:103BD000B0F8F60014302C49A1F8F60009E0A078FE
:103BE000032806D12848B0F8F60028382649A1F85D
:103BF000F600A078244981F8F400002517E00021A0
:103C00002148D03041550121001F41552148FDF781
:103C10001AFB02211F48FDF716FB04211D48FDF782
:103C200012FB20211B48FDF70EFB681CC5B2042DBA
:103C3000E5DB1548B0F8F620A17800E003E016A017
:103C400000F05AFE0CE0032023490870FF202349AE
:103C500008700D48807E062802D102200A49887625
:103C60000DE003201C490870FF201C49087006481D
:103C7000807E062802D102200349887600BF00BF5B
:103C8000002084E684020020E40000205000002090
:103C9000A400002000080140205553415254202028
:103CA0005379735461736B2E476C6173734E756DEA
:103CB0003A2025642C20205379735461736B2E7540
:103CC000313653746570526571756972653A202595
:103CD00064202F6E00000000AD000020AE00002028
:103CE00010B5044621460548FFF739FE00BF802184
:103CF0000248FFF767FD0028F9D010BD00380140E9
:103D000037B514460846064B6A46214600F0F2F8DD
:103D100004466946002000F084FC20463EBD0000B9
:103D2000234600084100080218BF04200A0E18BFED
:103D300040F001004FF07F4232EA010108BF40F03D
:103D40000200012808BF052070470121FCF7A4BB31
:103D500061214FF0E040FCF79FBB6FF05E01080768
:103D6000FCF79ABB02E008C8121F08C1002AFAD16A
:103D700070477047002001E001C1121F002AFBD1EB
:103D8000704700000149086070470000E000002013
:103D90002DE9FF5FDDE90220010DDDF838B00243B7
:103DA00018D044F61050A1F2FF3141430D140F9882
:103DB000012820D0A5EB0B00401C5FEA000A4FF061
:103DC0000004474EDFF81C91A046504616D5CAF1B4
:103DD000000728E00F98012443A2012808D0002101
:103DE00000980F9BC0E90021C0E90243BDE8FF9F96
:103DF0006FEA0B01F4E7CBF10000DEE7074612E0C3
:103E0000F80707D02246334640464946FCF715FCE2
:103E1000804689462246334610461946FCF70DFC7B
:103E200004460E467F10002FEAD1DDE90201BAF107
:103E3000000F42464B4602DAFCF7FFFB01E0FCF7BD
:103E40006EFC04460E460022284BFCF709FD03D801
:103E50004FF0FF30014607E00022254B2046314657
:103E6000FCF744FBFCF7E3FC102409E0002C0ADB20
:103E70000A220023FCF7A8FA019B30321A55641E6F
:103E800050EA0102F2D1641C019AC4F111031444F6
:103E90000F9A012A03D0012208430DD10AE00843FA
:103EA00004D000204FF0110B0F9080E7A3EB0B051F
:103EB0006D1E0DE05B4504DD4FF0000205F10105CC
:103EC00004E003DA4FF00002A5F10105002AECD06E
:103ED00000980F99C0E90231C0E9004586E700006B
:103EE000000024400000F03F300000000000F043DC
:103EF0000000E03F2DE9FF4F95B09B4689460646FE
:103F000000250FE2252877D100242746F84A012111
:103F1000059400E0044316F8013F203B01FA03F04A
:103F20001042F7D130782A2811D06FF02F03307863
:103F3000A0F13002092A16D8059A44F0020402EBD7
:103F4000820203EB42021044761C0590EFE759F819
:103F5000042B0592002A03DA504244F400540590E1
:103F600044F00204761C30782E2816D116F8010F82
:103F700044F004042A280DD06FF02F023078A0F10D
:103F80003003092B09D807EB870302EB4303C7185B
:103F9000761CF3E759F8047B761C30786C280FD038
:103FA00006DC4C2817D068280DD06A2814D104E00C
:103FB000742810D07A280FD10DE044F400140AE0E0
:103FC00044F4801401E044F440147278824202D137
:103FD00004F58014761C761C307866280BD013DC30
:103FE000582877D009DC002875D04528F6D0462817
:103FF000F4D047281AD19DE118E0632835D0642811
:1040000079D0652812D195E1702873D008DC672833
:10401000F1D069286FD06E280DD06F2806D1B5E099
:1040200073282CD0752875D0782874D05A461799E3
:1040300090476D1C75E1C4F30250022809D0032893
:104040000DD0D9F8001004280DD00D6009F1040935
:1040500067E1D9F80010EA17C1E90052F6E7D9F88C
:1040600000100D80F2E70D70F0E719F8041B8DF8D1
:10407000001000208DF80100EA46012003E059F805
:1040800004AB4FF0FF3061074FF0000102D40DE0A8
:1040900008F101018846B9420FDA8045F8DB1AF8C9
:1040A00008100029F4D108E008F101018846814296
:1040B000FADB1AF808100029F6D105985B46A0EB48
:1040C000080721463846179A00F094FA284400EB76
:1040D000080507E04DE029E10DE01AF8010B5A460A
:1040E00017999047B8F10108F7D25B462146384648
:1040F000179A13E142E00A220092C4F302524FF0F1
:10410000000A022A08D059F804CB032A4FEAEC71BE
:104110000AD00DE029E02AE009F1070121F00702A9
:10412000F2E802C1914609E00FFA8CFC4FEAEC710B
:10413000042A03D14FFA8CFC4FEAEC71002907DA0C
:104140000A460021DCF1000C61EB02012D2202E0A5
:10415000220504D52B228DF80420012203E0E2077A
:1041600001D02022F7E7904659E00A2102E0102210
:104170000DE010214FF0000A00910BE010224FF0EB
:10418000000A44F004040827009203E008224FF0DC
:10419000000A0092C4F30252022A05D059F804CB57
:1041A0000021032A08D009E009F1070121F00702E4
:1041B000F2E802C1914605E01FFA8CFC042A01D105
:1041C0000CF0FF0C4FF00008220728D5702806D00D
:1041D000009B83F0100353EA0A0305D00EE040224F
:1041E0008DF80420012208E05CEA010206D03022AA
:1041F0008DF804208DF8050002229046009B83F084
:10420000080353EA0A030AD15CEA010201D16207FA
:1042100005D530228DF804204FF001087F1E582864
:1042200004D034A003900EA802900DE036A0F9E768
:1042300053466046009AFCF7C7F884460398825CB0
:104240000298401E029002705CEA0100F0D10298D0
:1042500006A9081A00F1200A600702D524F4803468
:1042600000E00127574502DDA7EB0A0000E000202F
:1042700000EB0A01009005984144401A0590E003C4
:1042800006D45B462146179A059800F0B3F9054419
:10429000002706E001A85A46C05D179990476D1C9B
:1042A0007F1C4745F6DBE0030CD55B462146179A99
:1042B000059800F09FF9054404E030205A4617990C
:1042C00090476D1C0099481E00900029F5DC08E01D
:1042D000029802995A460078491C02911799904712
:1042E0006D1CBAF10001AAF1010AF1DC65E10000E0
:1042F00009280100303132333435363738396162BC
:10430000636465660000000030313233343536377F
:1043100038394142434445460000000000F058F956
:104320000544761C307800287FF4ECAD19B028469F
:10433000BDE8F08F620700D4062709F1070222F0DA
:10434000070CFCE80223E14603F000485FEA080C92
:1043500002D00FF2702C0DE05FEA045C02D50FF280
:10436000682C07E05FEAC47C02D00FF2602C01E009
:10437000AFF2700C4FF0FF3823F00043CDF850C07F
:1043800065280CD006DC452809D046281DD04728D2
:104390003DD13DE0662818D067287ED138E0002165
:1043A000112F01DB112000E0781CCDE9000106A9E6
:1043B0000EA8FFF7EDFCDDE90F010E9A0391002135
:1043C000009207F1010A04914DE04FF00040009780
:1043D000CDE9011006A90EA8FFF7DAFCDDE90F020E
:1043E00003920E9B11990022DDF80CA00093049219
:1043F00011B9791C00EB010AB7EB0A0004D4C0F133
:10440000FF3007F1010A0490AAEB0700019044E095
:10441000012F00DA01270021112F01DD112000E01A
:104420003846CDE9000106A90EA8FFF7B1FCDDE989
:104430000F010E9A0391002104910092BA462107C0
:104440000CD40399514500DA8A46BAF1010F05DD13
:10445000009AAAF10101515C302908D0B84202DA71
:1044600010F1040F06DA0121CDE9011015E0AAF1DF
:104470000101E9E7002805DC049901440491AAEB55
:10448000000102E0411C514500DD8A460499401AB2
:10449000401C01904FF000400290200704D4019886
:1044A000504501DBCDF8048000208DF84F000298C4
:1044B0000DF14F07B0F1004F25D02B200E90029840
:1044C0004FF0020800280CDA404202902D200E9096
:1044D00007E00A210298FBF761FF3031029007F8EC
:1044E000011DB8F10001A8F10108F2DC02980028D2
:1044F000EFD1791E0E980870307800F0200040F05F
:10450000450007F8020D12A8C01B00F10708149817
:10451000007800B1012000EB0A01019801EBE07185
:1045200005984144401A401E0590E00306D45B46BE
:104530002146179A059800F05DF805441498007814
:1045400018B15A46179990476D1CE00324D55B4675
:104550002146179A059800F04DF805441CE0049890
:10456000002807DBDDE90301884203DD0098405C99
:10457000179901E0179930205A469047049805F1A1
:104580000105401C04900198401E019004D12E208A
:104590005A46179990476D1CBAF10001AAF1010A19
:1045A000DDDC05E017F8010B5A46179990476D1CA2
:1045B000B8F10001A8F10108F4DC5B462146179A26
:1045C0000598ABE62D0000002B0000002000000045
:1045D0002DE9F041044600251E461746880404D400
:1045E00005E039462020B0476D1C641EF9D52846E9
:1045F000BDE8F0812DE9F041044600251E469046B5
:10460000C80301D5302700E02027880404D505E041
:1046100041463846B0476D1C641EF9D52846BDE8B2
:10462000F0810A68531C0B601070704710B56FF072
:104630000400FEF73BFB0A4800680A49B0FBF1F0B2
:10464000094908700846007800EB4001C1EBC01032
:104650004FF6FF7101EAC0000449088010BD000058
:104660000C00002000127A00D4000020D6000020A8
:104670000146114A12884A434FF0E0235A61002252
:104680009A611A46126942F001021A6100BF4FF0A6
:10469000E022106900F001021AB100F48032002A11
:1046A000F5D04FF0E022126922F001024FF0E02332
:1046B0001A6100229A617047D60000202DE9F0416E
:1046C00004464FF019404E49002500EB4400884253
:1046D0004AD84C492046FBF7CAFDFBF7E9FE804665
:1046E000FCF78CF8064648494046FBF7C0FD0746F4
:1046F00046494046FBF7BBFD2146FBF7B5FD394671
:10470000FBF7AFFD04464249FBF7B1FD4149FBF71A
:1047100056FD2146FBF7ABFD6FF04141FBF74FFD26
:104720002146FBF7A4FD3C49FBF749FD2146FBF779
:104730009EFD0146394806F00304784450F82400F1
:10474000FBF795FD3649794451F82410FBF737FD06
:104750003449794451F82410FBF731FDB11085BB81
:10476000BDE8F041FBF798BE4FF0FF4131EA04008D
:1047700018D04FF0CE41B1EB440F84BF4FF07E50C4
:10478000BDE8F0812849B1EB440F28BF0125A0D234
:104790000220FFF7F7FA14F0004F0ED0BDE8F04109
:1047A000FFF7DBBA204614F5000F04BF0020BDE878
:1047B000F081BDE8F041FFF7C8BABDE8F041FFF76E
:1047C000C7BAFBF769FE04000BD0B4F1FF4F0FD05E
:1047D000FFF7A8FA042808BFFFF7BFFA2046BDE894
:1047E000F0810220FFF7CEFABDE8F041FFF7B5BA3D
:1047F0000220FFF7C7FABDE8F041FFF7A9BA0000B1
:104800000000501E3BAAB840F4FD05370070313E51
:1048100012BB2A3D12BB2A3EFFFF7F3F82030000EE
:10482000660300004A0300000000A085FFF7FEFEBB
:10483000FDF7B3FCFCF73CFDFDF798FCFDF794FC9D
:1048400040F283314FF6FF70FCF722F94FF4E1306C
:1048500000F07AF84FF4E13000F0CEF8FCF7D8FA27
:10486000FDF74EFEFDF776FFFCF7DAFB0BE0FCF7F9
:1048700097FF0548C08830B10348C088401E0249F0
:10488000C880FEF737F9F2E7E4000020F0B50B30FE
:10489000154D20F007010024144A0FE003688B42F5
:1048A0000BD38B4205D95E1A43184768C3E90067EA
:1048B00000E04368136002C004E0021D1068002895
:1048C000ECD12046002802D1286808B10020F0BDB4
:1048D000064A07481060074A121A22F00702C0E988
:1048E000002401202860D7E7DC000020D800002049
:1048F000AC1E0020A82000200FB438B505A80090F9
:104900000F48009A0499FFF7FBF9002000900C482B
:10491000FBF74EFC85B200240DE000BF40210948A2
:10492000FEF750FF0028F9D00548015D0548FFF764
:1049300016F8601C84B2AC42EFDB38BC5DF814FBA7
:10494000540A00200048004010B586B004460121FA
:104950000420FDF78DFC012144F20100FDF788FCE5
:104960002348FEF7E1FE4FF40070ADF81400032079
:104970008DF8160018208DF8170005A91D48FCF7C2
:1049800084FB4FF48060ADF8140048208DF81700C8
:1049900005A91848FCF779FB01940020ADF8080040
:1049A000ADF80A00ADF80C00ADF810000C20ADF821
:1049B0000E0001A90E48FEF761FF01210C48FEF729
:1049C000A7FE012240F225510948FEF732FF2520BB
:1049D0008DF8000003208DF801008DF80200012001
:1049E0008DF803006846FDF7DFFB06B010BD000040
:1049F000003801400008014010B586B0044601218E
:104A00008804FDF715FC01210920FDF731FC4FF466
:104A10008060ADF8140003208DF8160018208DF882
:104A2000170005A91C48FCF730FB4FF40060ADF8F7
:104A3000140048208DF8170005A91748FCF725FB3E
:104A400001940020ADF80800ADF80A00ADF80C00A4
:104A5000ADF810000C20ADF80E0001A90F48FEF7CC
:104A60000DFF01210D48FEF753FE012240F22551B2
:104A70000A48FEF7DEFE27208DF8000003208DF89F
:104A800001008DF8020001208DF803006846FDF753
:104A90008BFB06B010BD0000000C01400048004038
:104AA0000000803F0030983F0000B53F0040D73FF6
:104AB00000000000320A7E397F661E395B991F397B
:104AC0000000803FF037983FF304B53FFD44D73FE7
:104AD000F04A000800000020E4000000643D0008E7
:104AE000D44B0008E4000020C4230000743D0008FB
:104AF00000000000000000000000000000A24A04C6
:104B0000000000000000000001020304060708097D
:104B10000000000001020304010203040607080963
:104B2000020406080000000000E8000800EC00088D
:104B300000F0000800F4000800F8000800FC00087D
:104B400000000000002E9302002E930201000000DE
:104B5000C0D40100B05F0E0002000000C0D401000C
:104B600000350C0003000000C0D4010008930A00C7
:104B700004000000C0D4010090B20800050000004D
:104B8000C0D401001092030006000000A60E000031
:104B90000200000000004006800CC012000000006F
:104BA0000000000000000000C01200000000000033
:104BB00000000000000000000000000000000000F5
:104BC00000000000000000000000000000000000E5
:044BD00000000000E1
:0400000508000131BD
:00000001FF
